{"abi":[{"inputs":[{"internalType":"uint256","name":"_initialSpace","type":"uint256"},{"internalType":"uint256","name":"_initialPrice","type":"uint256"},{"internalType":"address","name":"_creator","type":"address"}],"stateMutability":"nonpayable","type":"constructor"},{"anonymous":false,"inputs":[{"indexed":false,"internalType":"address","name":"renter","type":"address"},{"indexed":false,"internalType":"uint256","name":"space","type":"uint256"},{"indexed":false,"internalType":"uint256","name":"duration","type":"uint256"}],"name":"RentalCreated","type":"event"},{"anonymous":false,"inputs":[{"indexed":false,"internalType":"uint256","name":"rentalId","type":"uint256"}],"name":"RentalTerminated","type":"event"},{"inputs":[],"name":"availableDiskSpace","outputs":[{"internalType":"uint256","name":"","type":"uint256"}],"stateMutability":"view","type":"function"},{"inputs":[{"internalType":"uint256","name":"_space","type":"uint256"},{"internalType":"uint256","name":"_durationInHours","type":"uint256"}],"name":"createRental","outputs":[],"stateMutability":"payable","type":"function"},{"inputs":[],"name":"getRentalCount","outputs":[{"internalType":"uint256","name":"","type":"uint256"}],"stateMutability":"view","type":"function"},{"inputs":[],"name":"owner","outputs":[{"internalType":"address","name":"","type":"address"}],"stateMutability":"view","type":"function"},{"inputs":[],"name":"rentalPrice","outputs":[{"internalType":"uint256","name":"","type":"uint256"}],"stateMutability":"view","type":"function"},{"inputs":[{"internalType":"uint256","name":"","type":"uint256"}],"name":"rentals","outputs":[{"internalType":"address","name":"renter","type":"address"},{"internalType":"uint256","name":"space","type":"uint256"},{"internalType":"uint256","name":"startTime","type":"uint256"},{"internalType":"uint256","name":"endTime","type":"uint256"},{"internalType":"bool","name":"active","type":"bool"}],"stateMutability":"view","type":"function"},{"inputs":[{"internalType":"uint256","name":"_rentalId","type":"uint256"}],"name":"terminateRental","outputs":[],"stateMutability":"nonpayable","type":"function"},{"inputs":[],"name":"totalDiskSpace","outputs":[{"internalType":"uint256","name":"","type":"uint256"}],"stateMutability":"view","type":"function"}],"devdoc":{"kind":"dev","methods":{},"version":1},"evm":{"assembly":"    /* \"DiskSpaceRentalSystem.sol\":548:2837  contract DiskSpaceRentalSystem {... */\n  mstore(0x40, 0x80)\n    /* \"DiskSpaceRentalSystem.sol\":1184:1414  constructor(uint256 _initialSpace, uint256 _initialPrice, address _creator) {... */\n  callvalue\n  dup1\n  iszero\n  tag_1\n  jumpi\n  0x00\n  dup1\n  revert\ntag_1:\n  pop\n  mload(0x40)\n  sub(codesize, bytecodeSize)\n  dup1\n  bytecodeSize\n  dup4\n  codecopy\n  dup2\n  dup2\n  add\n  0x40\n  mstore\n  dup2\n  add\n  swap1\n  tag_2\n  swap2\n  swap1\n  tag_3\n  jump\t// in\ntag_2:\n    /* \"DiskSpaceRentalSystem.sol\":1278:1286  _creator */\n  dup1\n    /* \"DiskSpaceRentalSystem.sol\":1270:1275  owner */\n  0x00\n  dup1\n    /* \"DiskSpaceRentalSystem.sol\":1270:1286  owner = _creator */\n  0x0100\n  exp\n  dup2\n  sload\n  dup2\n  0xffffffffffffffffffffffffffffffffffffffff\n  mul\n  not\n  and\n  swap1\n  dup4\n  0xffffffffffffffffffffffffffffffffffffffff\n  and\n  mul\n  or\n  swap1\n  sstore\n  pop\n    /* \"DiskSpaceRentalSystem.sol\":1313:1326  _initialSpace */\n  dup3\n    /* \"DiskSpaceRentalSystem.sol\":1296:1310  totalDiskSpace */\n  0x02\n    /* \"DiskSpaceRentalSystem.sol\":1296:1326  totalDiskSpace = _initialSpace */\n  dup2\n  swap1\n  sstore\n  pop\n    /* \"DiskSpaceRentalSystem.sol\":1357:1370  _initialSpace */\n  dup3\n    /* \"DiskSpaceRentalSystem.sol\":1336:1354  availableDiskSpace */\n  0x03\n    /* \"DiskSpaceRentalSystem.sol\":1336:1370  availableDiskSpace = _initialSpace */\n  dup2\n  swap1\n  sstore\n  pop\n    /* \"DiskSpaceRentalSystem.sol\":1394:1407  _initialPrice */\n  dup2\n    /* \"DiskSpaceRentalSystem.sol\":1380:1391  rentalPrice */\n  0x01\n    /* \"DiskSpaceRentalSystem.sol\":1380:1407  rentalPrice = _initialPrice */\n  dup2\n  swap1\n  sstore\n  pop\n    /* \"DiskSpaceRentalSystem.sol\":1184:1414  constructor(uint256 _initialSpace, uint256 _initialPrice, address _creator) {... */\n  pop\n  pop\n  pop\n    /* \"DiskSpaceRentalSystem.sol\":548:2837  contract DiskSpaceRentalSystem {... */\n  jump(tag_6)\n    /* \"#utility.yul\":88:205   */\ntag_8:\n    /* \"#utility.yul\":197:198   */\n  0x00\n    /* \"#utility.yul\":194:195   */\n  dup1\n    /* \"#utility.yul\":187:199   */\n  revert\n    /* \"#utility.yul\":334:411   */\ntag_10:\n    /* \"#utility.yul\":371:378   */\n  0x00\n    /* \"#utility.yul\":400:405   */\n  dup2\n    /* \"#utility.yul\":389:405   */\n  swap1\n  pop\n    /* \"#utility.yul\":334:411   */\n  swap2\n  swap1\n  pop\n  jump\t// out\n    /* \"#utility.yul\":417:539   */\ntag_11:\n    /* \"#utility.yul\":490:514   */\n  tag_23\n    /* \"#utility.yul\":508:513   */\n  dup2\n    /* \"#utility.yul\":490:514   */\n  tag_10\n  jump\t// in\ntag_23:\n    /* \"#utility.yul\":483:488   */\n  dup2\n    /* \"#utility.yul\":480:515   */\n  eq\n    /* \"#utility.yul\":470:533   */\n  tag_24\n  jumpi\n    /* \"#utility.yul\":529:530   */\n  0x00\n    /* \"#utility.yul\":526:527   */\n  dup1\n    /* \"#utility.yul\":519:531   */\n  revert\n    /* \"#utility.yul\":470:533   */\ntag_24:\n    /* \"#utility.yul\":417:539   */\n  pop\n  jump\t// out\n    /* \"#utility.yul\":545:688   */\ntag_12:\n    /* \"#utility.yul\":602:607   */\n  0x00\n    /* \"#utility.yul\":633:639   */\n  dup2\n    /* \"#utility.yul\":627:640   */\n  mload\n    /* \"#utility.yul\":618:640   */\n  swap1\n  pop\n    /* \"#utility.yul\":649:682   */\n  tag_26\n    /* \"#utility.yul\":676:681   */\n  dup2\n    /* \"#utility.yul\":649:682   */\n  tag_11\n  jump\t// in\ntag_26:\n    /* \"#utility.yul\":545:688   */\n  swap3\n  swap2\n  pop\n  pop\n  jump\t// out\n    /* \"#utility.yul\":694:820   */\ntag_13:\n    /* \"#utility.yul\":731:738   */\n  0x00\n    /* \"#utility.yul\":771:813   */\n  0xffffffffffffffffffffffffffffffffffffffff\n    /* \"#utility.yul\":764:769   */\n  dup3\n    /* \"#utility.yul\":760:814   */\n  and\n    /* \"#utility.yul\":749:814   */\n  swap1\n  pop\n    /* \"#utility.yul\":694:820   */\n  swap2\n  swap1\n  pop\n  jump\t// out\n    /* \"#utility.yul\":826:922   */\ntag_14:\n    /* \"#utility.yul\":863:870   */\n  0x00\n    /* \"#utility.yul\":892:916   */\n  tag_29\n    /* \"#utility.yul\":910:915   */\n  dup3\n    /* \"#utility.yul\":892:916   */\n  tag_13\n  jump\t// in\ntag_29:\n    /* \"#utility.yul\":881:916   */\n  swap1\n  pop\n    /* \"#utility.yul\":826:922   */\n  swap2\n  swap1\n  pop\n  jump\t// out\n    /* \"#utility.yul\":928:1050   */\ntag_15:\n    /* \"#utility.yul\":1001:1025   */\n  tag_31\n    /* \"#utility.yul\":1019:1024   */\n  dup2\n    /* \"#utility.yul\":1001:1025   */\n  tag_14\n  jump\t// in\ntag_31:\n    /* \"#utility.yul\":994:999   */\n  dup2\n    /* \"#utility.yul\":991:1026   */\n  eq\n    /* \"#utility.yul\":981:1044   */\n  tag_32\n  jumpi\n    /* \"#utility.yul\":1040:1041   */\n  0x00\n    /* \"#utility.yul\":1037:1038   */\n  dup1\n    /* \"#utility.yul\":1030:1042   */\n  revert\n    /* \"#utility.yul\":981:1044   */\ntag_32:\n    /* \"#utility.yul\":928:1050   */\n  pop\n  jump\t// out\n    /* \"#utility.yul\":1056:1199   */\ntag_16:\n    /* \"#utility.yul\":1113:1118   */\n  0x00\n    /* \"#utility.yul\":1144:1150   */\n  dup2\n    /* \"#utility.yul\":1138:1151   */\n  mload\n    /* \"#utility.yul\":1129:1151   */\n  swap1\n  pop\n    /* \"#utility.yul\":1160:1193   */\n  tag_34\n    /* \"#utility.yul\":1187:1192   */\n  dup2\n    /* \"#utility.yul\":1160:1193   */\n  tag_15\n  jump\t// in\ntag_34:\n    /* \"#utility.yul\":1056:1199   */\n  swap3\n  swap2\n  pop\n  pop\n  jump\t// out\n    /* \"#utility.yul\":1205:1868   */\ntag_3:\n    /* \"#utility.yul\":1293:1299   */\n  0x00\n    /* \"#utility.yul\":1301:1307   */\n  dup1\n    /* \"#utility.yul\":1309:1315   */\n  0x00\n    /* \"#utility.yul\":1358:1360   */\n  0x60\n    /* \"#utility.yul\":1346:1355   */\n  dup5\n    /* \"#utility.yul\":1337:1344   */\n  dup7\n    /* \"#utility.yul\":1333:1356   */\n  sub\n    /* \"#utility.yul\":1329:1361   */\n  slt\n    /* \"#utility.yul\":1326:1445   */\n  iszero\n  tag_36\n  jumpi\n    /* \"#utility.yul\":1364:1443   */\n  tag_37\n  tag_8\n  jump\t// in\ntag_37:\n    /* \"#utility.yul\":1326:1445   */\ntag_36:\n    /* \"#utility.yul\":1484:1485   */\n  0x00\n    /* \"#utility.yul\":1509:1573   */\n  tag_38\n    /* \"#utility.yul\":1565:1572   */\n  dup7\n    /* \"#utility.yul\":1556:1562   */\n  dup3\n    /* \"#utility.yul\":1545:1554   */\n  dup8\n    /* \"#utility.yul\":1541:1563   */\n  add\n    /* \"#utility.yul\":1509:1573   */\n  tag_12\n  jump\t// in\ntag_38:\n    /* \"#utility.yul\":1499:1573   */\n  swap4\n  pop\n    /* \"#utility.yul\":1455:1583   */\n  pop\n    /* \"#utility.yul\":1622:1624   */\n  0x20\n    /* \"#utility.yul\":1648:1712   */\n  tag_39\n    /* \"#utility.yul\":1704:1711   */\n  dup7\n    /* \"#utility.yul\":1695:1701   */\n  dup3\n    /* \"#utility.yul\":1684:1693   */\n  dup8\n    /* \"#utility.yul\":1680:1702   */\n  add\n    /* \"#utility.yul\":1648:1712   */\n  tag_12\n  jump\t// in\ntag_39:\n    /* \"#utility.yul\":1638:1712   */\n  swap3\n  pop\n    /* \"#utility.yul\":1593:1722   */\n  pop\n    /* \"#utility.yul\":1761:1763   */\n  0x40\n    /* \"#utility.yul\":1787:1851   */\n  tag_40\n    /* \"#utility.yul\":1843:1850   */\n  dup7\n    /* \"#utility.yul\":1834:1840   */\n  dup3\n    /* \"#utility.yul\":1823:1832   */\n  dup8\n    /* \"#utility.yul\":1819:1841   */\n  add\n    /* \"#utility.yul\":1787:1851   */\n  tag_16\n  jump\t// in\ntag_40:\n    /* \"#utility.yul\":1777:1851   */\n  swap2\n  pop\n    /* \"#utility.yul\":1732:1861   */\n  pop\n    /* \"#utility.yul\":1205:1868   */\n  swap3\n  pop\n  swap3\n  pop\n  swap3\n  jump\t// out\n    /* \"DiskSpaceRentalSystem.sol\":548:2837  contract DiskSpaceRentalSystem {... */\ntag_6:\n  dataSize(sub_0)\n  dup1\n  dataOffset(sub_0)\n  0x00\n  codecopy\n  0x00\n  return\nstop\n\nsub_0: assembly {\n        /* \"DiskSpaceRentalSystem.sol\":548:2837  contract DiskSpaceRentalSystem {... */\n      mstore(0x40, 0x80)\n      jumpi(tag_1, lt(calldatasize, 0x04))\n      shr(0xe0, calldataload(0x00))\n      dup1\n      0x8da5cb5b\n      gt\n      tag_10\n      jumpi\n      dup1\n      0x8da5cb5b\n      eq\n      tag_6\n      jumpi\n      dup1\n      0xaf94a1d1\n      eq\n      tag_7\n      jumpi\n      dup1\n      0xd12e8d51\n      eq\n      tag_8\n      jumpi\n      dup1\n      0xf9217419\n      eq\n      tag_9\n      jumpi\n      jump(tag_1)\n    tag_10:\n      dup1\n      0x0136f66d\n      eq\n      tag_2\n      jumpi\n      dup1\n      0x1c43cd04\n      eq\n      tag_3\n      jumpi\n      dup1\n      0x69b42dc2\n      eq\n      tag_4\n      jumpi\n      dup1\n      0x83d255bc\n      eq\n      tag_5\n      jumpi\n    tag_1:\n      0x00\n      dup1\n      revert\n        /* \"DiskSpaceRentalSystem.sol\":675:704  uint256 public totalDiskSpace */\n    tag_2:\n      callvalue\n      dup1\n      iszero\n      tag_11\n      jumpi\n      0x00\n      dup1\n      revert\n    tag_11:\n      pop\n      tag_12\n      tag_13\n      jump\t// in\n    tag_12:\n      mload(0x40)\n      tag_14\n      swap2\n      swap1\n      tag_15\n      jump\t// in\n    tag_14:\n      mload(0x40)\n      dup1\n      swap2\n      sub\n      swap1\n      return\n        /* \"DiskSpaceRentalSystem.sol\":611:637  uint256 public rentalPrice */\n    tag_3:\n      callvalue\n      dup1\n      iszero\n      tag_16\n      jumpi\n      0x00\n      dup1\n      revert\n    tag_16:\n      pop\n      tag_17\n      tag_18\n      jump\t// in\n    tag_17:\n      mload(0x40)\n      tag_19\n      swap2\n      swap1\n      tag_15\n      jump\t// in\n    tag_19:\n      mload(0x40)\n      dup1\n      swap2\n      sub\n      swap1\n      return\n        /* \"DiskSpaceRentalSystem.sol\":710:743  uint256 public availableDiskSpace */\n    tag_4:\n      callvalue\n      dup1\n      iszero\n      tag_20\n      jumpi\n      0x00\n      dup1\n      revert\n    tag_20:\n      pop\n      tag_21\n      tag_22\n      jump\t// in\n    tag_21:\n      mload(0x40)\n      tag_23\n      swap2\n      swap1\n      tag_15\n      jump\t// in\n    tag_23:\n      mload(0x40)\n      dup1\n      swap2\n      sub\n      swap1\n      return\n        /* \"DiskSpaceRentalSystem.sol\":2739:2835  function getRentalCount() external view returns (uint256) {... */\n    tag_5:\n      callvalue\n      dup1\n      iszero\n      tag_24\n      jumpi\n      0x00\n      dup1\n      revert\n    tag_24:\n      pop\n      tag_25\n      tag_26\n      jump\t// in\n    tag_25:\n      mload(0x40)\n      tag_27\n      swap2\n      swap1\n      tag_15\n      jump\t// in\n    tag_27:\n      mload(0x40)\n      dup1\n      swap2\n      sub\n      swap1\n      return\n        /* \"DiskSpaceRentalSystem.sol\":585:605  address public owner */\n    tag_6:\n      callvalue\n      dup1\n      iszero\n      tag_28\n      jumpi\n      0x00\n      dup1\n      revert\n    tag_28:\n      pop\n      tag_29\n      tag_30\n      jump\t// in\n    tag_29:\n      mload(0x40)\n      tag_31\n      swap2\n      swap1\n      tag_32\n      jump\t// in\n    tag_31:\n      mload(0x40)\n      dup1\n      swap2\n      sub\n      swap1\n      return\n        /* \"DiskSpaceRentalSystem.sol\":905:928  Rental[] public rentals */\n    tag_7:\n      callvalue\n      dup1\n      iszero\n      tag_33\n      jumpi\n      0x00\n      dup1\n      revert\n    tag_33:\n      pop\n      tag_34\n      0x04\n      dup1\n      calldatasize\n      sub\n      dup2\n      add\n      swap1\n      tag_35\n      swap2\n      swap1\n      tag_36\n      jump\t// in\n    tag_35:\n      tag_37\n      jump\t// in\n    tag_34:\n      mload(0x40)\n      tag_38\n      swap6\n      swap5\n      swap4\n      swap3\n      swap2\n      swap1\n      tag_39\n      jump\t// in\n    tag_38:\n      mload(0x40)\n      dup1\n      swap2\n      sub\n      swap1\n      return\n        /* \"DiskSpaceRentalSystem.sol\":1420:2161  function createRental(uint256 _space, uint256 _durationInHours) external payable {... */\n    tag_8:\n      tag_40\n      0x04\n      dup1\n      calldatasize\n      sub\n      dup2\n      add\n      swap1\n      tag_41\n      swap2\n      swap1\n      tag_42\n      jump\t// in\n    tag_41:\n      tag_43\n      jump\t// in\n    tag_40:\n      stop\n        /* \"DiskSpaceRentalSystem.sol\":2167:2733  function terminateRental(uint256 _rentalId) external onlyOwner {... */\n    tag_9:\n      callvalue\n      dup1\n      iszero\n      tag_44\n      jumpi\n      0x00\n      dup1\n      revert\n    tag_44:\n      pop\n      tag_45\n      0x04\n      dup1\n      calldatasize\n      sub\n      dup2\n      add\n      swap1\n      tag_46\n      swap2\n      swap1\n      tag_36\n      jump\t// in\n    tag_46:\n      tag_47\n      jump\t// in\n    tag_45:\n      stop\n        /* \"DiskSpaceRentalSystem.sol\":675:704  uint256 public totalDiskSpace */\n    tag_13:\n      sload(0x02)\n      dup2\n      jump\t// out\n        /* \"DiskSpaceRentalSystem.sol\":611:637  uint256 public rentalPrice */\n    tag_18:\n      sload(0x01)\n      dup2\n      jump\t// out\n        /* \"DiskSpaceRentalSystem.sol\":710:743  uint256 public availableDiskSpace */\n    tag_22:\n      sload(0x03)\n      dup2\n      jump\t// out\n        /* \"DiskSpaceRentalSystem.sol\":2739:2835  function getRentalCount() external view returns (uint256) {... */\n    tag_26:\n        /* \"DiskSpaceRentalSystem.sol\":2788:2795  uint256 */\n      0x00\n        /* \"DiskSpaceRentalSystem.sol\":2814:2821  rentals */\n      0x04\n        /* \"DiskSpaceRentalSystem.sol\":2814:2828  rentals.length */\n      dup1\n      sload\n      swap1\n      pop\n        /* \"DiskSpaceRentalSystem.sol\":2807:2828  return rentals.length */\n      swap1\n      pop\n        /* \"DiskSpaceRentalSystem.sol\":2739:2835  function getRentalCount() external view returns (uint256) {... */\n      swap1\n      jump\t// out\n        /* \"DiskSpaceRentalSystem.sol\":585:605  address public owner */\n    tag_30:\n      0x00\n      dup1\n      sload\n      swap1\n      0x0100\n      exp\n      swap1\n      div\n      0xffffffffffffffffffffffffffffffffffffffff\n      and\n      dup2\n      jump\t// out\n        /* \"DiskSpaceRentalSystem.sol\":905:928  Rental[] public rentals */\n    tag_37:\n      0x04\n      dup2\n      dup2\n      sload\n      dup2\n      lt\n      tag_49\n      jumpi\n      0x00\n      dup1\n      revert\n    tag_49:\n      swap1\n      0x00\n      mstore\n      keccak256(0x00, 0x20)\n      swap1\n      0x05\n      mul\n      add\n      0x00\n      swap2\n      pop\n      swap1\n      pop\n      dup1\n      0x00\n      add\n      0x00\n      swap1\n      sload\n      swap1\n      0x0100\n      exp\n      swap1\n      div\n      0xffffffffffffffffffffffffffffffffffffffff\n      and\n      swap1\n      dup1\n      0x01\n      add\n      sload\n      swap1\n      dup1\n      0x02\n      add\n      sload\n      swap1\n      dup1\n      0x03\n      add\n      sload\n      swap1\n      dup1\n      0x04\n      add\n      0x00\n      swap1\n      sload\n      swap1\n      0x0100\n      exp\n      swap1\n      div\n      0xff\n      and\n      swap1\n      pop\n      dup6\n      jump\t// out\n        /* \"DiskSpaceRentalSystem.sol\":1420:2161  function createRental(uint256 _space, uint256 _durationInHours) external payable {... */\n    tag_43:\n        /* \"DiskSpaceRentalSystem.sol\":1528:1529  0 */\n      0x00\n        /* \"DiskSpaceRentalSystem.sol\":1519:1525  _space */\n      dup3\n        /* \"DiskSpaceRentalSystem.sol\":1519:1529  _space > 0 */\n      gt\n        /* \"DiskSpaceRentalSystem.sol\":1519:1561  _space > 0 && _space <= availableDiskSpace */\n      dup1\n      iszero\n      tag_52\n      jumpi\n      pop\n        /* \"DiskSpaceRentalSystem.sol\":1543:1561  availableDiskSpace */\n      sload(0x03)\n        /* \"DiskSpaceRentalSystem.sol\":1533:1539  _space */\n      dup3\n        /* \"DiskSpaceRentalSystem.sol\":1533:1561  _space <= availableDiskSpace */\n      gt\n      iszero\n        /* \"DiskSpaceRentalSystem.sol\":1519:1561  _space > 0 && _space <= availableDiskSpace */\n    tag_52:\n        /* \"DiskSpaceRentalSystem.sol\":1511:1605  require(_space > 0 && _space <= availableDiskSpace, \"Invalid or insufficient available space\") */\n      tag_53\n      jumpi\n      mload(0x40)\n      0x08c379a000000000000000000000000000000000000000000000000000000000\n      dup2\n      mstore\n      0x04\n      add\n      tag_54\n      swap1\n      tag_55\n      jump\t// in\n    tag_54:\n      mload(0x40)\n      dup1\n      swap2\n      sub\n      swap1\n      revert\n    tag_53:\n        /* \"DiskSpaceRentalSystem.sol\":1615:1640  uint256 durationInSeconds */\n      0x00\n        /* \"DiskSpaceRentalSystem.sol\":1662:1666  3600 */\n      0x0e10\n        /* \"DiskSpaceRentalSystem.sol\":1643:1659  _durationInHours */\n      dup3\n        /* \"DiskSpaceRentalSystem.sol\":1643:1666  _durationInHours * 3600 */\n      tag_56\n      swap2\n      swap1\n      tag_57\n      jump\t// in\n    tag_56:\n        /* \"DiskSpaceRentalSystem.sol\":1615:1666  uint256 durationInSeconds = _durationInHours * 3600 */\n      swap1\n      pop\n        /* \"DiskSpaceRentalSystem.sol\":1704:1716  uint256 cost */\n      0x00\n        /* \"DiskSpaceRentalSystem.sol\":1742:1759  durationInSeconds */\n      dup2\n        /* \"DiskSpaceRentalSystem.sol\":1733:1739  _space */\n      dup5\n        /* \"DiskSpaceRentalSystem.sol\":1719:1730  rentalPrice */\n      sload(0x01)\n        /* \"DiskSpaceRentalSystem.sol\":1719:1739  rentalPrice * _space */\n      tag_58\n      swap2\n      swap1\n      tag_57\n      jump\t// in\n    tag_58:\n        /* \"DiskSpaceRentalSystem.sol\":1719:1759  rentalPrice * _space * durationInSeconds */\n      tag_59\n      swap2\n      swap1\n      tag_57\n      jump\t// in\n    tag_59:\n        /* \"DiskSpaceRentalSystem.sol\":1704:1759  uint256 cost = rentalPrice * _space * durationInSeconds */\n      swap1\n      pop\n        /* \"DiskSpaceRentalSystem.sol\":1790:1794  cost */\n      dup1\n        /* \"DiskSpaceRentalSystem.sol\":1777:1786  msg.value */\n      callvalue\n        /* \"DiskSpaceRentalSystem.sol\":1777:1794  msg.value >= cost */\n      lt\n      iszero\n        /* \"DiskSpaceRentalSystem.sol\":1769:1822  require(msg.value >= cost, \"Insufficient funds sent\") */\n      tag_60\n      jumpi\n      mload(0x40)\n      0x08c379a000000000000000000000000000000000000000000000000000000000\n      dup2\n      mstore\n      0x04\n      add\n      tag_61\n      swap1\n      tag_62\n      jump\t// in\n    tag_61:\n      mload(0x40)\n      dup1\n      swap2\n      sub\n      swap1\n      revert\n    tag_60:\n        /* \"DiskSpaceRentalSystem.sol\":1833:1840  rentals */\n      0x04\n        /* \"DiskSpaceRentalSystem.sol\":1846:2047  Rental({... */\n      mload(0x40)\n      dup1\n      0xa0\n      add\n      0x40\n      mstore\n      dup1\n        /* \"DiskSpaceRentalSystem.sol\":1875:1885  msg.sender */\n      caller\n        /* \"DiskSpaceRentalSystem.sol\":1846:2047  Rental({... */\n      0xffffffffffffffffffffffffffffffffffffffff\n      and\n      dup2\n      mstore\n      0x20\n      add\n        /* \"DiskSpaceRentalSystem.sol\":1906:1912  _space */\n      dup7\n        /* \"DiskSpaceRentalSystem.sol\":1846:2047  Rental({... */\n      dup2\n      mstore\n      0x20\n      add\n        /* \"DiskSpaceRentalSystem.sol\":1937:1952  block.timestamp */\n      timestamp\n        /* \"DiskSpaceRentalSystem.sol\":1846:2047  Rental({... */\n      dup2\n      mstore\n      0x20\n      add\n        /* \"DiskSpaceRentalSystem.sol\":1993:2010  durationInSeconds */\n      dup5\n        /* \"DiskSpaceRentalSystem.sol\":1975:1990  block.timestamp */\n      timestamp\n        /* \"DiskSpaceRentalSystem.sol\":1975:2010  block.timestamp + durationInSeconds */\n      tag_63\n      swap2\n      swap1\n      tag_64\n      jump\t// in\n    tag_63:\n        /* \"DiskSpaceRentalSystem.sol\":1846:2047  Rental({... */\n      dup2\n      mstore\n      0x20\n      add\n        /* \"DiskSpaceRentalSystem.sol\":2032:2036  true */\n      0x01\n        /* \"DiskSpaceRentalSystem.sol\":1846:2047  Rental({... */\n      iszero\n      iszero\n      dup2\n      mstore\n      pop\n        /* \"DiskSpaceRentalSystem.sol\":1833:2048  rentals.push(Rental({... */\n      swap1\n      dup1\n      0x01\n      dup2\n      sload\n      add\n      dup1\n      dup3\n      sstore\n      dup1\n      swap2\n      pop\n      pop\n      0x01\n      swap1\n      sub\n      swap1\n      0x00\n      mstore\n      keccak256(0x00, 0x20)\n      swap1\n      0x05\n      mul\n      add\n      0x00\n      swap1\n      swap2\n      swap1\n      swap2\n      swap1\n      swap2\n      pop\n      0x00\n      dup3\n      add\n      mload\n      dup2\n      0x00\n      add\n      exp(0x0100, 0x00)\n      dup2\n      sload\n      dup2\n      0xffffffffffffffffffffffffffffffffffffffff\n      mul\n      not\n      and\n      swap1\n      dup4\n      0xffffffffffffffffffffffffffffffffffffffff\n      and\n      mul\n      or\n      swap1\n      sstore\n      pop\n      0x20\n      dup3\n      add\n      mload\n      dup2\n      0x01\n      add\n      sstore\n      0x40\n      dup3\n      add\n      mload\n      dup2\n      0x02\n      add\n      sstore\n      0x60\n      dup3\n      add\n      mload\n      dup2\n      0x03\n      add\n      sstore\n      0x80\n      dup3\n      add\n      mload\n      dup2\n      0x04\n      add\n      exp(0x0100, 0x00)\n      dup2\n      sload\n      dup2\n      0xff\n      mul\n      not\n      and\n      swap1\n      dup4\n      iszero\n      iszero\n      mul\n      or\n      swap1\n      sstore\n      pop\n      pop\n      pop\n        /* \"DiskSpaceRentalSystem.sol\":2081:2087  _space */\n      dup4\n        /* \"DiskSpaceRentalSystem.sol\":2059:2077  availableDiskSpace */\n      0x03\n      0x00\n        /* \"DiskSpaceRentalSystem.sol\":2059:2087  availableDiskSpace -= _space */\n      dup3\n      dup3\n      sload\n      tag_66\n      swap2\n      swap1\n      tag_67\n      jump\t// in\n    tag_66:\n      swap3\n      pop\n      pop\n      dup2\n      swap1\n      sstore\n      pop\n        /* \"DiskSpaceRentalSystem.sol\":2102:2154  RentalCreated(msg.sender, _space, durationInSeconds) */\n      0x741499c4edf5c799e9cedfda49b3bcd3bbf97e3b1147b6e91507db50ff25dc6d\n        /* \"DiskSpaceRentalSystem.sol\":2116:2126  msg.sender */\n      caller\n        /* \"DiskSpaceRentalSystem.sol\":2128:2134  _space */\n      dup6\n        /* \"DiskSpaceRentalSystem.sol\":2136:2153  durationInSeconds */\n      dup5\n        /* \"DiskSpaceRentalSystem.sol\":2102:2154  RentalCreated(msg.sender, _space, durationInSeconds) */\n      mload(0x40)\n      tag_68\n      swap4\n      swap3\n      swap2\n      swap1\n      tag_69\n      jump\t// in\n    tag_68:\n      mload(0x40)\n      dup1\n      swap2\n      sub\n      swap1\n      log1\n        /* \"DiskSpaceRentalSystem.sol\":1501:2161  {... */\n      pop\n      pop\n        /* \"DiskSpaceRentalSystem.sol\":1420:2161  function createRental(uint256 _space, uint256 _durationInHours) external payable {... */\n      pop\n      pop\n      jump\t// out\n        /* \"DiskSpaceRentalSystem.sol\":2167:2733  function terminateRental(uint256 _rentalId) external onlyOwner {... */\n    tag_47:\n        /* \"DiskSpaceRentalSystem.sol\":1113:1118  owner */\n      0x00\n      dup1\n      sload\n      swap1\n      0x0100\n      exp\n      swap1\n      div\n      0xffffffffffffffffffffffffffffffffffffffff\n      and\n        /* \"DiskSpaceRentalSystem.sol\":1099:1118  msg.sender == owner */\n      0xffffffffffffffffffffffffffffffffffffffff\n      and\n        /* \"DiskSpaceRentalSystem.sol\":1099:1109  msg.sender */\n      caller\n        /* \"DiskSpaceRentalSystem.sol\":1099:1118  msg.sender == owner */\n      0xffffffffffffffffffffffffffffffffffffffff\n      and\n      eq\n        /* \"DiskSpaceRentalSystem.sol\":1091:1160  require(msg.sender == owner, \"Only the owner can call this function\") */\n      tag_71\n      jumpi\n      mload(0x40)\n      0x08c379a000000000000000000000000000000000000000000000000000000000\n      dup2\n      mstore\n      0x04\n      add\n      tag_72\n      swap1\n      tag_73\n      jump\t// in\n    tag_72:\n      mload(0x40)\n      dup1\n      swap2\n      sub\n      swap1\n      revert\n    tag_71:\n        /* \"DiskSpaceRentalSystem.sol\":2260:2267  rentals */\n      0x04\n        /* \"DiskSpaceRentalSystem.sol\":2260:2274  rentals.length */\n      dup1\n      sload\n      swap1\n      pop\n        /* \"DiskSpaceRentalSystem.sol\":2248:2257  _rentalId */\n      dup2\n        /* \"DiskSpaceRentalSystem.sol\":2248:2274  _rentalId < rentals.length */\n      lt\n        /* \"DiskSpaceRentalSystem.sol\":2240:2296  require(_rentalId < rentals.length, \"Invalid rental ID\") */\n      tag_75\n      jumpi\n      mload(0x40)\n      0x08c379a000000000000000000000000000000000000000000000000000000000\n      dup2\n      mstore\n      0x04\n      add\n      tag_76\n      swap1\n      tag_77\n      jump\t// in\n    tag_76:\n      mload(0x40)\n      dup1\n      swap2\n      sub\n      swap1\n      revert\n    tag_75:\n        /* \"DiskSpaceRentalSystem.sol\":2306:2327  Rental storage rental */\n      0x00\n        /* \"DiskSpaceRentalSystem.sol\":2330:2337  rentals */\n      0x04\n        /* \"DiskSpaceRentalSystem.sol\":2338:2347  _rentalId */\n      dup3\n        /* \"DiskSpaceRentalSystem.sol\":2330:2348  rentals[_rentalId] */\n      dup2\n      sload\n      dup2\n      lt\n      tag_78\n      jumpi\n      tag_79\n      tag_80\n      jump\t// in\n    tag_79:\n    tag_78:\n      swap1\n      0x00\n      mstore\n      keccak256(0x00, 0x20)\n      swap1\n      0x05\n      mul\n      add\n        /* \"DiskSpaceRentalSystem.sol\":2306:2348  Rental storage rental = rentals[_rentalId] */\n      swap1\n      pop\n        /* \"DiskSpaceRentalSystem.sol\":2371:2377  rental */\n      dup1\n        /* \"DiskSpaceRentalSystem.sol\":2371:2384  rental.active */\n      0x04\n      add\n      0x00\n      swap1\n      sload\n      swap1\n      0x0100\n      exp\n      swap1\n      div\n      0xff\n      and\n        /* \"DiskSpaceRentalSystem.sol\":2367:2727  if (rental.active) {... */\n      iszero\n      tag_82\n      jumpi\n        /* \"DiskSpaceRentalSystem.sol\":2422:2428  rental */\n      dup1\n        /* \"DiskSpaceRentalSystem.sol\":2422:2434  rental.space */\n      0x01\n      add\n      sload\n        /* \"DiskSpaceRentalSystem.sol\":2400:2418  availableDiskSpace */\n      0x03\n      0x00\n        /* \"DiskSpaceRentalSystem.sol\":2400:2434  availableDiskSpace += rental.space */\n      dup3\n      dup3\n      sload\n      tag_83\n      swap2\n      swap1\n      tag_64\n      jump\t// in\n    tag_83:\n      swap3\n      pop\n      pop\n      dup2\n      swap1\n      sstore\n      pop\n        /* \"DiskSpaceRentalSystem.sol\":2464:2469  false */\n      0x00\n        /* \"DiskSpaceRentalSystem.sol\":2448:2454  rental */\n      dup2\n        /* \"DiskSpaceRentalSystem.sol\":2448:2461  rental.active */\n      0x04\n      add\n      0x00\n        /* \"DiskSpaceRentalSystem.sol\":2448:2469  rental.active = false */\n      0x0100\n      exp\n      dup2\n      sload\n      dup2\n      0xff\n      mul\n      not\n      and\n      swap1\n      dup4\n      iszero\n      iszero\n      mul\n      or\n      swap1\n      sstore\n      pop\n        /* \"DiskSpaceRentalSystem.sol\":2483:2508  uint256 durationInSeconds */\n      0x00\n        /* \"DiskSpaceRentalSystem.sol\":2528:2534  rental */\n      dup2\n        /* \"DiskSpaceRentalSystem.sol\":2528:2544  rental.startTime */\n      0x02\n      add\n      sload\n        /* \"DiskSpaceRentalSystem.sol\":2511:2517  rental */\n      dup3\n        /* \"DiskSpaceRentalSystem.sol\":2511:2525  rental.endTime */\n      0x03\n      add\n      sload\n        /* \"DiskSpaceRentalSystem.sol\":2511:2544  rental.endTime - rental.startTime */\n      tag_84\n      swap2\n      swap1\n      tag_67\n      jump\t// in\n    tag_84:\n        /* \"DiskSpaceRentalSystem.sol\":2483:2544  uint256 durationInSeconds = rental.endTime - rental.startTime */\n      swap1\n      pop\n        /* \"DiskSpaceRentalSystem.sol\":2558:2570  uint256 cost */\n      0x00\n        /* \"DiskSpaceRentalSystem.sol\":2602:2619  durationInSeconds */\n      dup2\n        /* \"DiskSpaceRentalSystem.sol\":2587:2593  rental */\n      dup4\n        /* \"DiskSpaceRentalSystem.sol\":2587:2599  rental.space */\n      0x01\n      add\n      sload\n        /* \"DiskSpaceRentalSystem.sol\":2573:2584  rentalPrice */\n      sload(0x01)\n        /* \"DiskSpaceRentalSystem.sol\":2573:2599  rentalPrice * rental.space */\n      tag_85\n      swap2\n      swap1\n      tag_57\n      jump\t// in\n    tag_85:\n        /* \"DiskSpaceRentalSystem.sol\":2573:2619  rentalPrice * rental.space * durationInSeconds */\n      tag_86\n      swap2\n      swap1\n      tag_57\n      jump\t// in\n    tag_86:\n        /* \"DiskSpaceRentalSystem.sol\":2558:2619  uint256 cost = rentalPrice * rental.space * durationInSeconds */\n      swap1\n      pop\n        /* \"DiskSpaceRentalSystem.sol\":2641:2647  rental */\n      dup3\n        /* \"DiskSpaceRentalSystem.sol\":2641:2654  rental.renter */\n      0x00\n      add\n      0x00\n      swap1\n      sload\n      swap1\n      0x0100\n      exp\n      swap1\n      div\n      0xffffffffffffffffffffffffffffffffffffffff\n      and\n        /* \"DiskSpaceRentalSystem.sol\":2633:2664  payable(rental.renter).transfer */\n      0xffffffffffffffffffffffffffffffffffffffff\n      and\n        /* \"DiskSpaceRentalSystem.sol\":2633:2670  payable(rental.renter).transfer(cost) */\n      0x08fc\n        /* \"DiskSpaceRentalSystem.sol\":2665:2669  cost */\n      dup3\n        /* \"DiskSpaceRentalSystem.sol\":2633:2670  payable(rental.renter).transfer(cost) */\n      swap1\n      dup2\n      iszero\n      mul\n      swap1\n      mload(0x40)\n      0x00\n      mload(0x40)\n      dup1\n      dup4\n      sub\n      dup2\n      dup6\n      dup9\n      dup9\n      call\n      swap4\n      pop\n      pop\n      pop\n      pop\n      iszero\n      dup1\n      iszero\n      tag_88\n      jumpi\n      returndatasize\n      0x00\n      dup1\n      returndatacopy\n      revert(0x00, returndatasize)\n    tag_88:\n      pop\n        /* \"DiskSpaceRentalSystem.sol\":2689:2716  RentalTerminated(_rentalId) */\n      0xecddf1b4fdc1297684aa71a38e047726f2411ac8b4b4e705b9bf6e21d75ae133\n        /* \"DiskSpaceRentalSystem.sol\":2706:2715  _rentalId */\n      dup5\n        /* \"DiskSpaceRentalSystem.sol\":2689:2716  RentalTerminated(_rentalId) */\n      mload(0x40)\n      tag_89\n      swap2\n      swap1\n      tag_15\n      jump\t// in\n    tag_89:\n      mload(0x40)\n      dup1\n      swap2\n      sub\n      swap1\n      log1\n        /* \"DiskSpaceRentalSystem.sol\":2386:2727  {... */\n      pop\n      pop\n        /* \"DiskSpaceRentalSystem.sol\":2367:2727  if (rental.active) {... */\n    tag_82:\n        /* \"DiskSpaceRentalSystem.sol\":2230:2733  {... */\n      pop\n        /* \"DiskSpaceRentalSystem.sol\":2167:2733  function terminateRental(uint256 _rentalId) external onlyOwner {... */\n      pop\n      jump\t// out\n        /* \"#utility.yul\":7:84   */\n    tag_90:\n        /* \"#utility.yul\":44:51   */\n      0x00\n        /* \"#utility.yul\":73:78   */\n      dup2\n        /* \"#utility.yul\":62:78   */\n      swap1\n      pop\n        /* \"#utility.yul\":7:84   */\n      swap2\n      swap1\n      pop\n      jump\t// out\n        /* \"#utility.yul\":90:208   */\n    tag_91:\n        /* \"#utility.yul\":177:201   */\n      tag_115\n        /* \"#utility.yul\":195:200   */\n      dup2\n        /* \"#utility.yul\":177:201   */\n      tag_90\n      jump\t// in\n    tag_115:\n        /* \"#utility.yul\":172:175   */\n      dup3\n        /* \"#utility.yul\":165:202   */\n      mstore\n        /* \"#utility.yul\":90:208   */\n      pop\n      pop\n      jump\t// out\n        /* \"#utility.yul\":214:436   */\n    tag_15:\n        /* \"#utility.yul\":307:311   */\n      0x00\n        /* \"#utility.yul\":345:347   */\n      0x20\n        /* \"#utility.yul\":334:343   */\n      dup3\n        /* \"#utility.yul\":330:348   */\n      add\n        /* \"#utility.yul\":322:348   */\n      swap1\n      pop\n        /* \"#utility.yul\":358:429   */\n      tag_117\n        /* \"#utility.yul\":426:427   */\n      0x00\n        /* \"#utility.yul\":415:424   */\n      dup4\n        /* \"#utility.yul\":411:428   */\n      add\n        /* \"#utility.yul\":402:408   */\n      dup5\n        /* \"#utility.yul\":358:429   */\n      tag_91\n      jump\t// in\n    tag_117:\n        /* \"#utility.yul\":214:436   */\n      swap3\n      swap2\n      pop\n      pop\n      jump\t// out\n        /* \"#utility.yul\":442:568   */\n    tag_92:\n        /* \"#utility.yul\":479:486   */\n      0x00\n        /* \"#utility.yul\":519:561   */\n      0xffffffffffffffffffffffffffffffffffffffff\n        /* \"#utility.yul\":512:517   */\n      dup3\n        /* \"#utility.yul\":508:562   */\n      and\n        /* \"#utility.yul\":497:562   */\n      swap1\n      pop\n        /* \"#utility.yul\":442:568   */\n      swap2\n      swap1\n      pop\n      jump\t// out\n        /* \"#utility.yul\":574:670   */\n    tag_93:\n        /* \"#utility.yul\":611:618   */\n      0x00\n        /* \"#utility.yul\":640:664   */\n      tag_120\n        /* \"#utility.yul\":658:663   */\n      dup3\n        /* \"#utility.yul\":640:664   */\n      tag_92\n      jump\t// in\n    tag_120:\n        /* \"#utility.yul\":629:664   */\n      swap1\n      pop\n        /* \"#utility.yul\":574:670   */\n      swap2\n      swap1\n      pop\n      jump\t// out\n        /* \"#utility.yul\":676:794   */\n    tag_94:\n        /* \"#utility.yul\":763:787   */\n      tag_122\n        /* \"#utility.yul\":781:786   */\n      dup2\n        /* \"#utility.yul\":763:787   */\n      tag_93\n      jump\t// in\n    tag_122:\n        /* \"#utility.yul\":758:761   */\n      dup3\n        /* \"#utility.yul\":751:788   */\n      mstore\n        /* \"#utility.yul\":676:794   */\n      pop\n      pop\n      jump\t// out\n        /* \"#utility.yul\":800:1022   */\n    tag_32:\n        /* \"#utility.yul\":893:897   */\n      0x00\n        /* \"#utility.yul\":931:933   */\n      0x20\n        /* \"#utility.yul\":920:929   */\n      dup3\n        /* \"#utility.yul\":916:934   */\n      add\n        /* \"#utility.yul\":908:934   */\n      swap1\n      pop\n        /* \"#utility.yul\":944:1015   */\n      tag_124\n        /* \"#utility.yul\":1012:1013   */\n      0x00\n        /* \"#utility.yul\":1001:1010   */\n      dup4\n        /* \"#utility.yul\":997:1014   */\n      add\n        /* \"#utility.yul\":988:994   */\n      dup5\n        /* \"#utility.yul\":944:1015   */\n      tag_94\n      jump\t// in\n    tag_124:\n        /* \"#utility.yul\":800:1022   */\n      swap3\n      swap2\n      pop\n      pop\n      jump\t// out\n        /* \"#utility.yul\":1109:1226   */\n    tag_96:\n        /* \"#utility.yul\":1218:1219   */\n      0x00\n        /* \"#utility.yul\":1215:1216   */\n      dup1\n        /* \"#utility.yul\":1208:1220   */\n      revert\n        /* \"#utility.yul\":1355:1477   */\n    tag_98:\n        /* \"#utility.yul\":1428:1452   */\n      tag_129\n        /* \"#utility.yul\":1446:1451   */\n      dup2\n        /* \"#utility.yul\":1428:1452   */\n      tag_90\n      jump\t// in\n    tag_129:\n        /* \"#utility.yul\":1421:1426   */\n      dup2\n        /* \"#utility.yul\":1418:1453   */\n      eq\n        /* \"#utility.yul\":1408:1471   */\n      tag_130\n      jumpi\n        /* \"#utility.yul\":1467:1468   */\n      0x00\n        /* \"#utility.yul\":1464:1465   */\n      dup1\n        /* \"#utility.yul\":1457:1469   */\n      revert\n        /* \"#utility.yul\":1408:1471   */\n    tag_130:\n        /* \"#utility.yul\":1355:1477   */\n      pop\n      jump\t// out\n        /* \"#utility.yul\":1483:1622   */\n    tag_99:\n        /* \"#utility.yul\":1529:1534   */\n      0x00\n        /* \"#utility.yul\":1567:1573   */\n      dup2\n        /* \"#utility.yul\":1554:1574   */\n      calldataload\n        /* \"#utility.yul\":1545:1574   */\n      swap1\n      pop\n        /* \"#utility.yul\":1583:1616   */\n      tag_132\n        /* \"#utility.yul\":1610:1615   */\n      dup2\n        /* \"#utility.yul\":1583:1616   */\n      tag_98\n      jump\t// in\n    tag_132:\n        /* \"#utility.yul\":1483:1622   */\n      swap3\n      swap2\n      pop\n      pop\n      jump\t// out\n        /* \"#utility.yul\":1628:1957   */\n    tag_36:\n        /* \"#utility.yul\":1687:1693   */\n      0x00\n        /* \"#utility.yul\":1736:1738   */\n      0x20\n        /* \"#utility.yul\":1724:1733   */\n      dup3\n        /* \"#utility.yul\":1715:1722   */\n      dup5\n        /* \"#utility.yul\":1711:1734   */\n      sub\n        /* \"#utility.yul\":1707:1739   */\n      slt\n        /* \"#utility.yul\":1704:1823   */\n      iszero\n      tag_134\n      jumpi\n        /* \"#utility.yul\":1742:1821   */\n      tag_135\n      tag_96\n      jump\t// in\n    tag_135:\n        /* \"#utility.yul\":1704:1823   */\n    tag_134:\n        /* \"#utility.yul\":1862:1863   */\n      0x00\n        /* \"#utility.yul\":1887:1940   */\n      tag_136\n        /* \"#utility.yul\":1932:1939   */\n      dup5\n        /* \"#utility.yul\":1923:1929   */\n      dup3\n        /* \"#utility.yul\":1912:1921   */\n      dup6\n        /* \"#utility.yul\":1908:1930   */\n      add\n        /* \"#utility.yul\":1887:1940   */\n      tag_99\n      jump\t// in\n    tag_136:\n        /* \"#utility.yul\":1877:1940   */\n      swap2\n      pop\n        /* \"#utility.yul\":1833:1950   */\n      pop\n        /* \"#utility.yul\":1628:1957   */\n      swap3\n      swap2\n      pop\n      pop\n      jump\t// out\n        /* \"#utility.yul\":1963:2053   */\n    tag_100:\n        /* \"#utility.yul\":1997:2004   */\n      0x00\n        /* \"#utility.yul\":2040:2045   */\n      dup2\n        /* \"#utility.yul\":2033:2046   */\n      iszero\n        /* \"#utility.yul\":2026:2047   */\n      iszero\n        /* \"#utility.yul\":2015:2047   */\n      swap1\n      pop\n        /* \"#utility.yul\":1963:2053   */\n      swap2\n      swap1\n      pop\n      jump\t// out\n        /* \"#utility.yul\":2059:2168   */\n    tag_101:\n        /* \"#utility.yul\":2140:2161   */\n      tag_139\n        /* \"#utility.yul\":2155:2160   */\n      dup2\n        /* \"#utility.yul\":2140:2161   */\n      tag_100\n      jump\t// in\n    tag_139:\n        /* \"#utility.yul\":2135:2138   */\n      dup3\n        /* \"#utility.yul\":2128:2162   */\n      mstore\n        /* \"#utility.yul\":2059:2168   */\n      pop\n      pop\n      jump\t// out\n        /* \"#utility.yul\":2174:2826   */\n    tag_39:\n        /* \"#utility.yul\":2373:2377   */\n      0x00\n        /* \"#utility.yul\":2411:2414   */\n      0xa0\n        /* \"#utility.yul\":2400:2409   */\n      dup3\n        /* \"#utility.yul\":2396:2415   */\n      add\n        /* \"#utility.yul\":2388:2415   */\n      swap1\n      pop\n        /* \"#utility.yul\":2425:2496   */\n      tag_141\n        /* \"#utility.yul\":2493:2494   */\n      0x00\n        /* \"#utility.yul\":2482:2491   */\n      dup4\n        /* \"#utility.yul\":2478:2495   */\n      add\n        /* \"#utility.yul\":2469:2475   */\n      dup9\n        /* \"#utility.yul\":2425:2496   */\n      tag_94\n      jump\t// in\n    tag_141:\n        /* \"#utility.yul\":2506:2578   */\n      tag_142\n        /* \"#utility.yul\":2574:2576   */\n      0x20\n        /* \"#utility.yul\":2563:2572   */\n      dup4\n        /* \"#utility.yul\":2559:2577   */\n      add\n        /* \"#utility.yul\":2550:2556   */\n      dup8\n        /* \"#utility.yul\":2506:2578   */\n      tag_91\n      jump\t// in\n    tag_142:\n        /* \"#utility.yul\":2588:2660   */\n      tag_143\n        /* \"#utility.yul\":2656:2658   */\n      0x40\n        /* \"#utility.yul\":2645:2654   */\n      dup4\n        /* \"#utility.yul\":2641:2659   */\n      add\n        /* \"#utility.yul\":2632:2638   */\n      dup7\n        /* \"#utility.yul\":2588:2660   */\n      tag_91\n      jump\t// in\n    tag_143:\n        /* \"#utility.yul\":2670:2742   */\n      tag_144\n        /* \"#utility.yul\":2738:2740   */\n      0x60\n        /* \"#utility.yul\":2727:2736   */\n      dup4\n        /* \"#utility.yul\":2723:2741   */\n      add\n        /* \"#utility.yul\":2714:2720   */\n      dup6\n        /* \"#utility.yul\":2670:2742   */\n      tag_91\n      jump\t// in\n    tag_144:\n        /* \"#utility.yul\":2752:2819   */\n      tag_145\n        /* \"#utility.yul\":2814:2817   */\n      0x80\n        /* \"#utility.yul\":2803:2812   */\n      dup4\n        /* \"#utility.yul\":2799:2818   */\n      add\n        /* \"#utility.yul\":2790:2796   */\n      dup5\n        /* \"#utility.yul\":2752:2819   */\n      tag_101\n      jump\t// in\n    tag_145:\n        /* \"#utility.yul\":2174:2826   */\n      swap7\n      swap6\n      pop\n      pop\n      pop\n      pop\n      pop\n      pop\n      jump\t// out\n        /* \"#utility.yul\":2832:3306   */\n    tag_42:\n        /* \"#utility.yul\":2900:2906   */\n      0x00\n        /* \"#utility.yul\":2908:2914   */\n      dup1\n        /* \"#utility.yul\":2957:2959   */\n      0x40\n        /* \"#utility.yul\":2945:2954   */\n      dup4\n        /* \"#utility.yul\":2936:2943   */\n      dup6\n        /* \"#utility.yul\":2932:2955   */\n      sub\n        /* \"#utility.yul\":2928:2960   */\n      slt\n        /* \"#utility.yul\":2925:3044   */\n      iszero\n      tag_147\n      jumpi\n        /* \"#utility.yul\":2963:3042   */\n      tag_148\n      tag_96\n      jump\t// in\n    tag_148:\n        /* \"#utility.yul\":2925:3044   */\n    tag_147:\n        /* \"#utility.yul\":3083:3084   */\n      0x00\n        /* \"#utility.yul\":3108:3161   */\n      tag_149\n        /* \"#utility.yul\":3153:3160   */\n      dup6\n        /* \"#utility.yul\":3144:3150   */\n      dup3\n        /* \"#utility.yul\":3133:3142   */\n      dup7\n        /* \"#utility.yul\":3129:3151   */\n      add\n        /* \"#utility.yul\":3108:3161   */\n      tag_99\n      jump\t// in\n    tag_149:\n        /* \"#utility.yul\":3098:3161   */\n      swap3\n      pop\n        /* \"#utility.yul\":3054:3171   */\n      pop\n        /* \"#utility.yul\":3210:3212   */\n      0x20\n        /* \"#utility.yul\":3236:3289   */\n      tag_150\n        /* \"#utility.yul\":3281:3288   */\n      dup6\n        /* \"#utility.yul\":3272:3278   */\n      dup3\n        /* \"#utility.yul\":3261:3270   */\n      dup7\n        /* \"#utility.yul\":3257:3279   */\n      add\n        /* \"#utility.yul\":3236:3289   */\n      tag_99\n      jump\t// in\n    tag_150:\n        /* \"#utility.yul\":3226:3289   */\n      swap2\n      pop\n        /* \"#utility.yul\":3181:3299   */\n      pop\n        /* \"#utility.yul\":2832:3306   */\n      swap3\n      pop\n      swap3\n      swap1\n      pop\n      jump\t// out\n        /* \"#utility.yul\":3312:3481   */\n    tag_102:\n        /* \"#utility.yul\":3396:3407   */\n      0x00\n        /* \"#utility.yul\":3430:3436   */\n      dup3\n        /* \"#utility.yul\":3425:3428   */\n      dup3\n        /* \"#utility.yul\":3418:3437   */\n      mstore\n        /* \"#utility.yul\":3470:3474   */\n      0x20\n        /* \"#utility.yul\":3465:3468   */\n      dup3\n        /* \"#utility.yul\":3461:3475   */\n      add\n        /* \"#utility.yul\":3446:3475   */\n      swap1\n      pop\n        /* \"#utility.yul\":3312:3481   */\n      swap3\n      swap2\n      pop\n      pop\n      jump\t// out\n        /* \"#utility.yul\":3487:3713   */\n    tag_103:\n        /* \"#utility.yul\":3627:3661   */\n      0x496e76616c6964206f7220696e73756666696369656e7420617661696c61626c\n        /* \"#utility.yul\":3623:3624   */\n      0x00\n        /* \"#utility.yul\":3615:3621   */\n      dup3\n        /* \"#utility.yul\":3611:3625   */\n      add\n        /* \"#utility.yul\":3604:3662   */\n      mstore\n        /* \"#utility.yul\":3696:3705   */\n      0x6520737061636500000000000000000000000000000000000000000000000000\n        /* \"#utility.yul\":3691:3693   */\n      0x20\n        /* \"#utility.yul\":3683:3689   */\n      dup3\n        /* \"#utility.yul\":3679:3694   */\n      add\n        /* \"#utility.yul\":3672:3706   */\n      mstore\n        /* \"#utility.yul\":3487:3713   */\n      pop\n      jump\t// out\n        /* \"#utility.yul\":3719:4085   */\n    tag_104:\n        /* \"#utility.yul\":3861:3864   */\n      0x00\n        /* \"#utility.yul\":3882:3949   */\n      tag_154\n        /* \"#utility.yul\":3946:3948   */\n      0x27\n        /* \"#utility.yul\":3941:3944   */\n      dup4\n        /* \"#utility.yul\":3882:3949   */\n      tag_102\n      jump\t// in\n    tag_154:\n        /* \"#utility.yul\":3875:3949   */\n      swap2\n      pop\n        /* \"#utility.yul\":3958:4051   */\n      tag_155\n        /* \"#utility.yul\":4047:4050   */\n      dup3\n        /* \"#utility.yul\":3958:4051   */\n      tag_103\n      jump\t// in\n    tag_155:\n        /* \"#utility.yul\":4076:4078   */\n      0x40\n        /* \"#utility.yul\":4071:4074   */\n      dup3\n        /* \"#utility.yul\":4067:4079   */\n      add\n        /* \"#utility.yul\":4060:4079   */\n      swap1\n      pop\n        /* \"#utility.yul\":3719:4085   */\n      swap2\n      swap1\n      pop\n      jump\t// out\n        /* \"#utility.yul\":4091:4510   */\n    tag_55:\n        /* \"#utility.yul\":4257:4261   */\n      0x00\n        /* \"#utility.yul\":4295:4297   */\n      0x20\n        /* \"#utility.yul\":4284:4293   */\n      dup3\n        /* \"#utility.yul\":4280:4298   */\n      add\n        /* \"#utility.yul\":4272:4298   */\n      swap1\n      pop\n        /* \"#utility.yul\":4344:4353   */\n      dup2\n        /* \"#utility.yul\":4338:4342   */\n      dup2\n        /* \"#utility.yul\":4334:4354   */\n      sub\n        /* \"#utility.yul\":4330:4331   */\n      0x00\n        /* \"#utility.yul\":4319:4328   */\n      dup4\n        /* \"#utility.yul\":4315:4332   */\n      add\n        /* \"#utility.yul\":4308:4355   */\n      mstore\n        /* \"#utility.yul\":4372:4503   */\n      tag_157\n        /* \"#utility.yul\":4498:4502   */\n      dup2\n        /* \"#utility.yul\":4372:4503   */\n      tag_104\n      jump\t// in\n    tag_157:\n        /* \"#utility.yul\":4364:4503   */\n      swap1\n      pop\n        /* \"#utility.yul\":4091:4510   */\n      swap2\n      swap1\n      pop\n      jump\t// out\n        /* \"#utility.yul\":4516:4696   */\n    tag_105:\n        /* \"#utility.yul\":4564:4641   */\n      0x4e487b7100000000000000000000000000000000000000000000000000000000\n        /* \"#utility.yul\":4561:4562   */\n      0x00\n        /* \"#utility.yul\":4554:4642   */\n      mstore\n        /* \"#utility.yul\":4661:4665   */\n      0x11\n        /* \"#utility.yul\":4658:4659   */\n      0x04\n        /* \"#utility.yul\":4651:4666   */\n      mstore\n        /* \"#utility.yul\":4685:4689   */\n      0x24\n        /* \"#utility.yul\":4682:4683   */\n      0x00\n        /* \"#utility.yul\":4675:4690   */\n      revert\n        /* \"#utility.yul\":4702:5112   */\n    tag_57:\n        /* \"#utility.yul\":4742:4749   */\n      0x00\n        /* \"#utility.yul\":4765:4785   */\n      tag_160\n        /* \"#utility.yul\":4783:4784   */\n      dup3\n        /* \"#utility.yul\":4765:4785   */\n      tag_90\n      jump\t// in\n    tag_160:\n        /* \"#utility.yul\":4760:4785   */\n      swap2\n      pop\n        /* \"#utility.yul\":4799:4819   */\n      tag_161\n        /* \"#utility.yul\":4817:4818   */\n      dup4\n        /* \"#utility.yul\":4799:4819   */\n      tag_90\n      jump\t// in\n    tag_161:\n        /* \"#utility.yul\":4794:4819   */\n      swap3\n      pop\n        /* \"#utility.yul\":4854:4855   */\n      dup3\n        /* \"#utility.yul\":4851:4852   */\n      dup3\n        /* \"#utility.yul\":4847:4856   */\n      mul\n        /* \"#utility.yul\":4876:4906   */\n      tag_162\n        /* \"#utility.yul\":4894:4905   */\n      dup2\n        /* \"#utility.yul\":4876:4906   */\n      tag_90\n      jump\t// in\n    tag_162:\n        /* \"#utility.yul\":4865:4906   */\n      swap2\n      pop\n        /* \"#utility.yul\":5055:5056   */\n      dup3\n        /* \"#utility.yul\":5046:5053   */\n      dup3\n        /* \"#utility.yul\":5042:5057   */\n      div\n        /* \"#utility.yul\":5039:5040   */\n      dup5\n        /* \"#utility.yul\":5036:5058   */\n      eq\n        /* \"#utility.yul\":5016:5017   */\n      dup4\n        /* \"#utility.yul\":5009:5018   */\n      iszero\n        /* \"#utility.yul\":4989:5072   */\n      or\n        /* \"#utility.yul\":4966:5105   */\n      tag_163\n      jumpi\n        /* \"#utility.yul\":5085:5103   */\n      tag_164\n      tag_105\n      jump\t// in\n    tag_164:\n        /* \"#utility.yul\":4966:5105   */\n    tag_163:\n        /* \"#utility.yul\":4750:5112   */\n      pop\n        /* \"#utility.yul\":4702:5112   */\n      swap3\n      swap2\n      pop\n      pop\n      jump\t// out\n        /* \"#utility.yul\":5118:5291   */\n    tag_106:\n        /* \"#utility.yul\":5258:5283   */\n      0x496e73756666696369656e742066756e64732073656e74000000000000000000\n        /* \"#utility.yul\":5254:5255   */\n      0x00\n        /* \"#utility.yul\":5246:5252   */\n      dup3\n        /* \"#utility.yul\":5242:5256   */\n      add\n        /* \"#utility.yul\":5235:5284   */\n      mstore\n        /* \"#utility.yul\":5118:5291   */\n      pop\n      jump\t// out\n        /* \"#utility.yul\":5297:5663   */\n    tag_107:\n        /* \"#utility.yul\":5439:5442   */\n      0x00\n        /* \"#utility.yul\":5460:5527   */\n      tag_167\n        /* \"#utility.yul\":5524:5526   */\n      0x17\n        /* \"#utility.yul\":5519:5522   */\n      dup4\n        /* \"#utility.yul\":5460:5527   */\n      tag_102\n      jump\t// in\n    tag_167:\n        /* \"#utility.yul\":5453:5527   */\n      swap2\n      pop\n        /* \"#utility.yul\":5536:5629   */\n      tag_168\n        /* \"#utility.yul\":5625:5628   */\n      dup3\n        /* \"#utility.yul\":5536:5629   */\n      tag_106\n      jump\t// in\n    tag_168:\n        /* \"#utility.yul\":5654:5656   */\n      0x20\n        /* \"#utility.yul\":5649:5652   */\n      dup3\n        /* \"#utility.yul\":5645:5657   */\n      add\n        /* \"#utility.yul\":5638:5657   */\n      swap1\n      pop\n        /* \"#utility.yul\":5297:5663   */\n      swap2\n      swap1\n      pop\n      jump\t// out\n        /* \"#utility.yul\":5669:6088   */\n    tag_62:\n        /* \"#utility.yul\":5835:5839   */\n      0x00\n        /* \"#utility.yul\":5873:5875   */\n      0x20\n        /* \"#utility.yul\":5862:5871   */\n      dup3\n        /* \"#utility.yul\":5858:5876   */\n      add\n        /* \"#utility.yul\":5850:5876   */\n      swap1\n      pop\n        /* \"#utility.yul\":5922:5931   */\n      dup2\n        /* \"#utility.yul\":5916:5920   */\n      dup2\n        /* \"#utility.yul\":5912:5932   */\n      sub\n        /* \"#utility.yul\":5908:5909   */\n      0x00\n        /* \"#utility.yul\":5897:5906   */\n      dup4\n        /* \"#utility.yul\":5893:5910   */\n      add\n        /* \"#utility.yul\":5886:5933   */\n      mstore\n        /* \"#utility.yul\":5950:6081   */\n      tag_170\n        /* \"#utility.yul\":6076:6080   */\n      dup2\n        /* \"#utility.yul\":5950:6081   */\n      tag_107\n      jump\t// in\n    tag_170:\n        /* \"#utility.yul\":5942:6081   */\n      swap1\n      pop\n        /* \"#utility.yul\":5669:6088   */\n      swap2\n      swap1\n      pop\n      jump\t// out\n        /* \"#utility.yul\":6094:6285   */\n    tag_64:\n        /* \"#utility.yul\":6134:6137   */\n      0x00\n        /* \"#utility.yul\":6153:6173   */\n      tag_172\n        /* \"#utility.yul\":6171:6172   */\n      dup3\n        /* \"#utility.yul\":6153:6173   */\n      tag_90\n      jump\t// in\n    tag_172:\n        /* \"#utility.yul\":6148:6173   */\n      swap2\n      pop\n        /* \"#utility.yul\":6187:6207   */\n      tag_173\n        /* \"#utility.yul\":6205:6206   */\n      dup4\n        /* \"#utility.yul\":6187:6207   */\n      tag_90\n      jump\t// in\n    tag_173:\n        /* \"#utility.yul\":6182:6207   */\n      swap3\n      pop\n        /* \"#utility.yul\":6230:6231   */\n      dup3\n        /* \"#utility.yul\":6227:6228   */\n      dup3\n        /* \"#utility.yul\":6223:6232   */\n      add\n        /* \"#utility.yul\":6216:6232   */\n      swap1\n      pop\n        /* \"#utility.yul\":6251:6254   */\n      dup1\n        /* \"#utility.yul\":6248:6249   */\n      dup3\n        /* \"#utility.yul\":6245:6255   */\n      gt\n        /* \"#utility.yul\":6242:6278   */\n      iszero\n      tag_174\n      jumpi\n        /* \"#utility.yul\":6258:6276   */\n      tag_175\n      tag_105\n      jump\t// in\n    tag_175:\n        /* \"#utility.yul\":6242:6278   */\n    tag_174:\n        /* \"#utility.yul\":6094:6285   */\n      swap3\n      swap2\n      pop\n      pop\n      jump\t// out\n        /* \"#utility.yul\":6291:6485   */\n    tag_67:\n        /* \"#utility.yul\":6331:6335   */\n      0x00\n        /* \"#utility.yul\":6351:6371   */\n      tag_177\n        /* \"#utility.yul\":6369:6370   */\n      dup3\n        /* \"#utility.yul\":6351:6371   */\n      tag_90\n      jump\t// in\n    tag_177:\n        /* \"#utility.yul\":6346:6371   */\n      swap2\n      pop\n        /* \"#utility.yul\":6385:6405   */\n      tag_178\n        /* \"#utility.yul\":6403:6404   */\n      dup4\n        /* \"#utility.yul\":6385:6405   */\n      tag_90\n      jump\t// in\n    tag_178:\n        /* \"#utility.yul\":6380:6405   */\n      swap3\n      pop\n        /* \"#utility.yul\":6429:6430   */\n      dup3\n        /* \"#utility.yul\":6426:6427   */\n      dup3\n        /* \"#utility.yul\":6422:6431   */\n      sub\n        /* \"#utility.yul\":6414:6431   */\n      swap1\n      pop\n        /* \"#utility.yul\":6453:6454   */\n      dup2\n        /* \"#utility.yul\":6447:6451   */\n      dup2\n        /* \"#utility.yul\":6444:6455   */\n      gt\n        /* \"#utility.yul\":6441:6478   */\n      iszero\n      tag_179\n      jumpi\n        /* \"#utility.yul\":6458:6476   */\n      tag_180\n      tag_105\n      jump\t// in\n    tag_180:\n        /* \"#utility.yul\":6441:6478   */\n    tag_179:\n        /* \"#utility.yul\":6291:6485   */\n      swap3\n      swap2\n      pop\n      pop\n      jump\t// out\n        /* \"#utility.yul\":6491:6933   */\n    tag_69:\n        /* \"#utility.yul\":6640:6644   */\n      0x00\n        /* \"#utility.yul\":6678:6680   */\n      0x60\n        /* \"#utility.yul\":6667:6676   */\n      dup3\n        /* \"#utility.yul\":6663:6681   */\n      add\n        /* \"#utility.yul\":6655:6681   */\n      swap1\n      pop\n        /* \"#utility.yul\":6691:6762   */\n      tag_182\n        /* \"#utility.yul\":6759:6760   */\n      0x00\n        /* \"#utility.yul\":6748:6757   */\n      dup4\n        /* \"#utility.yul\":6744:6761   */\n      add\n        /* \"#utility.yul\":6735:6741   */\n      dup7\n        /* \"#utility.yul\":6691:6762   */\n      tag_94\n      jump\t// in\n    tag_182:\n        /* \"#utility.yul\":6772:6844   */\n      tag_183\n        /* \"#utility.yul\":6840:6842   */\n      0x20\n        /* \"#utility.yul\":6829:6838   */\n      dup4\n        /* \"#utility.yul\":6825:6843   */\n      add\n        /* \"#utility.yul\":6816:6822   */\n      dup6\n        /* \"#utility.yul\":6772:6844   */\n      tag_91\n      jump\t// in\n    tag_183:\n        /* \"#utility.yul\":6854:6926   */\n      tag_184\n        /* \"#utility.yul\":6922:6924   */\n      0x40\n        /* \"#utility.yul\":6911:6920   */\n      dup4\n        /* \"#utility.yul\":6907:6925   */\n      add\n        /* \"#utility.yul\":6898:6904   */\n      dup5\n        /* \"#utility.yul\":6854:6926   */\n      tag_91\n      jump\t// in\n    tag_184:\n        /* \"#utility.yul\":6491:6933   */\n      swap5\n      swap4\n      pop\n      pop\n      pop\n      pop\n      jump\t// out\n        /* \"#utility.yul\":6939:7163   */\n    tag_108:\n        /* \"#utility.yul\":7079:7113   */\n      0x4f6e6c7920746865206f776e65722063616e2063616c6c20746869732066756e\n        /* \"#utility.yul\":7075:7076   */\n      0x00\n        /* \"#utility.yul\":7067:7073   */\n      dup3\n        /* \"#utility.yul\":7063:7077   */\n      add\n        /* \"#utility.yul\":7056:7114   */\n      mstore\n        /* \"#utility.yul\":7148:7155   */\n      0x6374696f6e000000000000000000000000000000000000000000000000000000\n        /* \"#utility.yul\":7143:7145   */\n      0x20\n        /* \"#utility.yul\":7135:7141   */\n      dup3\n        /* \"#utility.yul\":7131:7146   */\n      add\n        /* \"#utility.yul\":7124:7156   */\n      mstore\n        /* \"#utility.yul\":6939:7163   */\n      pop\n      jump\t// out\n        /* \"#utility.yul\":7169:7535   */\n    tag_109:\n        /* \"#utility.yul\":7311:7314   */\n      0x00\n        /* \"#utility.yul\":7332:7399   */\n      tag_187\n        /* \"#utility.yul\":7396:7398   */\n      0x25\n        /* \"#utility.yul\":7391:7394   */\n      dup4\n        /* \"#utility.yul\":7332:7399   */\n      tag_102\n      jump\t// in\n    tag_187:\n        /* \"#utility.yul\":7325:7399   */\n      swap2\n      pop\n        /* \"#utility.yul\":7408:7501   */\n      tag_188\n        /* \"#utility.yul\":7497:7500   */\n      dup3\n        /* \"#utility.yul\":7408:7501   */\n      tag_108\n      jump\t// in\n    tag_188:\n        /* \"#utility.yul\":7526:7528   */\n      0x40\n        /* \"#utility.yul\":7521:7524   */\n      dup3\n        /* \"#utility.yul\":7517:7529   */\n      add\n        /* \"#utility.yul\":7510:7529   */\n      swap1\n      pop\n        /* \"#utility.yul\":7169:7535   */\n      swap2\n      swap1\n      pop\n      jump\t// out\n        /* \"#utility.yul\":7541:7960   */\n    tag_73:\n        /* \"#utility.yul\":7707:7711   */\n      0x00\n        /* \"#utility.yul\":7745:7747   */\n      0x20\n        /* \"#utility.yul\":7734:7743   */\n      dup3\n        /* \"#utility.yul\":7730:7748   */\n      add\n        /* \"#utility.yul\":7722:7748   */\n      swap1\n      pop\n        /* \"#utility.yul\":7794:7803   */\n      dup2\n        /* \"#utility.yul\":7788:7792   */\n      dup2\n        /* \"#utility.yul\":7784:7804   */\n      sub\n        /* \"#utility.yul\":7780:7781   */\n      0x00\n        /* \"#utility.yul\":7769:7778   */\n      dup4\n        /* \"#utility.yul\":7765:7782   */\n      add\n        /* \"#utility.yul\":7758:7805   */\n      mstore\n        /* \"#utility.yul\":7822:7953   */\n      tag_190\n        /* \"#utility.yul\":7948:7952   */\n      dup2\n        /* \"#utility.yul\":7822:7953   */\n      tag_109\n      jump\t// in\n    tag_190:\n        /* \"#utility.yul\":7814:7953   */\n      swap1\n      pop\n        /* \"#utility.yul\":7541:7960   */\n      swap2\n      swap1\n      pop\n      jump\t// out\n        /* \"#utility.yul\":7966:8133   */\n    tag_110:\n        /* \"#utility.yul\":8106:8125   */\n      0x496e76616c69642072656e74616c204944000000000000000000000000000000\n        /* \"#utility.yul\":8102:8103   */\n      0x00\n        /* \"#utility.yul\":8094:8100   */\n      dup3\n        /* \"#utility.yul\":8090:8104   */\n      add\n        /* \"#utility.yul\":8083:8126   */\n      mstore\n        /* \"#utility.yul\":7966:8133   */\n      pop\n      jump\t// out\n        /* \"#utility.yul\":8139:8505   */\n    tag_111:\n        /* \"#utility.yul\":8281:8284   */\n      0x00\n        /* \"#utility.yul\":8302:8369   */\n      tag_193\n        /* \"#utility.yul\":8366:8368   */\n      0x11\n        /* \"#utility.yul\":8361:8364   */\n      dup4\n        /* \"#utility.yul\":8302:8369   */\n      tag_102\n      jump\t// in\n    tag_193:\n        /* \"#utility.yul\":8295:8369   */\n      swap2\n      pop\n        /* \"#utility.yul\":8378:8471   */\n      tag_194\n        /* \"#utility.yul\":8467:8470   */\n      dup3\n        /* \"#utility.yul\":8378:8471   */\n      tag_110\n      jump\t// in\n    tag_194:\n        /* \"#utility.yul\":8496:8498   */\n      0x20\n        /* \"#utility.yul\":8491:8494   */\n      dup3\n        /* \"#utility.yul\":8487:8499   */\n      add\n        /* \"#utility.yul\":8480:8499   */\n      swap1\n      pop\n        /* \"#utility.yul\":8139:8505   */\n      swap2\n      swap1\n      pop\n      jump\t// out\n        /* \"#utility.yul\":8511:8930   */\n    tag_77:\n        /* \"#utility.yul\":8677:8681   */\n      0x00\n        /* \"#utility.yul\":8715:8717   */\n      0x20\n        /* \"#utility.yul\":8704:8713   */\n      dup3\n        /* \"#utility.yul\":8700:8718   */\n      add\n        /* \"#utility.yul\":8692:8718   */\n      swap1\n      pop\n        /* \"#utility.yul\":8764:8773   */\n      dup2\n        /* \"#utility.yul\":8758:8762   */\n      dup2\n        /* \"#utility.yul\":8754:8774   */\n      sub\n        /* \"#utility.yul\":8750:8751   */\n      0x00\n        /* \"#utility.yul\":8739:8748   */\n      dup4\n        /* \"#utility.yul\":8735:8752   */\n      add\n        /* \"#utility.yul\":8728:8775   */\n      mstore\n        /* \"#utility.yul\":8792:8923   */\n      tag_196\n        /* \"#utility.yul\":8918:8922   */\n      dup2\n        /* \"#utility.yul\":8792:8923   */\n      tag_111\n      jump\t// in\n    tag_196:\n        /* \"#utility.yul\":8784:8923   */\n      swap1\n      pop\n        /* \"#utility.yul\":8511:8930   */\n      swap2\n      swap1\n      pop\n      jump\t// out\n        /* \"#utility.yul\":8936:9116   */\n    tag_80:\n        /* \"#utility.yul\":8984:9061   */\n      0x4e487b7100000000000000000000000000000000000000000000000000000000\n        /* \"#utility.yul\":8981:8982   */\n      0x00\n        /* \"#utility.yul\":8974:9062   */\n      mstore\n        /* \"#utility.yul\":9081:9085   */\n      0x32\n        /* \"#utility.yul\":9078:9079   */\n      0x04\n        /* \"#utility.yul\":9071:9086   */\n      mstore\n        /* \"#utility.yul\":9105:9109   */\n      0x24\n        /* \"#utility.yul\":9102:9103   */\n      0x00\n        /* \"#utility.yul\":9095:9110   */\n      revert\n\n    auxdata: 0xa264697066735822122014cf6dba997fb798a13bcd60a0ecd6dced0a37bf581039121c0aa0c1e03eee6364736f6c63430008150033\n}\n","bytecode":{"linkReferences":{},"object":"608060405234801562000010575f80fd5b5060405162000d3938038062000d39833981810160405281019062000036919062000130565b805f806101000a81548173ffffffffffffffffffffffffffffffffffffffff021916908373ffffffffffffffffffffffffffffffffffffffff16021790555082600281905550826003819055508160018190555050505062000189565b5f80fd5b5f819050919050565b620000ab8162000097565b8114620000b6575f80fd5b50565b5f81519050620000c981620000a0565b92915050565b5f73ffffffffffffffffffffffffffffffffffffffff82169050919050565b5f620000fa82620000cf565b9050919050565b6200010c81620000ee565b811462000117575f80fd5b50565b5f815190506200012a8162000101565b92915050565b5f805f606084860312156200014a576200014962000093565b5b5f6200015986828701620000b9565b93505060206200016c86828701620000b9565b92505060406200017f868287016200011a565b9150509250925092565b610ba280620001975f395ff3fe60806040526004361061007a575f3560e01c80638da5cb5b1161004d5780638da5cb5b14610126578063af94a1d114610150578063d12e8d5114610190578063f9217419146101ac5761007a565b80630136f66d1461007e5780631c43cd04146100a857806369b42dc2146100d257806383d255bc146100fc575b5f80fd5b348015610089575f80fd5b506100926101d4565b60405161009f91906106c7565b60405180910390f35b3480156100b3575f80fd5b506100bc6101da565b6040516100c991906106c7565b60405180910390f35b3480156100dd575f80fd5b506100e66101e0565b6040516100f391906106c7565b60405180910390f35b348015610107575f80fd5b506101106101e6565b60405161011d91906106c7565b60405180910390f35b348015610131575f80fd5b5061013a6101f2565b604051610147919061071f565b60405180910390f35b34801561015b575f80fd5b5061017660048036038101906101719190610766565b610215565b6040516101879594939291906107ab565b60405180910390f35b6101aa60048036038101906101a591906107fc565b610281565b005b3480156101b7575f80fd5b506101d260048036038101906101cd9190610766565b610490565b005b60025481565b60015481565b60035481565b5f600480549050905090565b5f8054906101000a900473ffffffffffffffffffffffffffffffffffffffff1681565b60048181548110610224575f80fd5b905f5260205f2090600502015f91509050805f015f9054906101000a900473ffffffffffffffffffffffffffffffffffffffff1690806001015490806002015490806003015490806004015f9054906101000a900460ff16905085565b5f8211801561029257506003548211155b6102d1576040517f08c379a00000000000000000000000000000000000000000000000000000000081526004016102c8906108ba565b60405180910390fd5b5f610e10826102e09190610905565b90505f81846001546102f29190610905565b6102fc9190610905565b905080341015610341576040517f08c379a000000000000000000000000000000000000000000000000000000000815260040161033890610990565b60405180910390fd5b60046040518060a001604052803373ffffffffffffffffffffffffffffffffffffffff168152602001868152602001428152602001844261038291906109ae565b815260200160011515815250908060018154018082558091505060019003905f5260205f2090600502015f909190919091505f820151815f015f6101000a81548173ffffffffffffffffffffffffffffffffffffffff021916908373ffffffffffffffffffffffffffffffffffffffff1602179055506020820151816001015560408201518160020155606082015181600301556080820151816004015f6101000a81548160ff02191690831515021790555050508360035f82825461044891906109e1565b925050819055507f741499c4edf5c799e9cedfda49b3bcd3bbf97e3b1147b6e91507db50ff25dc6d33858460405161048293929190610a14565b60405180910390a150505050565b5f8054906101000a900473ffffffffffffffffffffffffffffffffffffffff1673ffffffffffffffffffffffffffffffffffffffff163373ffffffffffffffffffffffffffffffffffffffff161461051d576040517f08c379a000000000000000000000000000000000000000000000000000000000815260040161051490610ab9565b60405180910390fd5b6004805490508110610564576040517f08c379a000000000000000000000000000000000000000000000000000000000815260040161055b90610b21565b60405180910390fd5b5f6004828154811061057957610578610b3f565b5b905f5260205f2090600502019050806004015f9054906101000a900460ff16156106ab57806001015460035f8282546105b291906109ae565b925050819055505f816004015f6101000a81548160ff0219169083151502179055505f816002015482600301546105e991906109e1565b90505f8183600101546001546105ff9190610905565b6106099190610905565b9050825f015f9054906101000a900473ffffffffffffffffffffffffffffffffffffffff1673ffffffffffffffffffffffffffffffffffffffff166108fc8290811502906040515f60405180830381858888f19350505050158015610670573d5f803e3d5ffd5b507fecddf1b4fdc1297684aa71a38e047726f2411ac8b4b4e705b9bf6e21d75ae133846040516106a091906106c7565b60405180910390a150505b5050565b5f819050919050565b6106c1816106af565b82525050565b5f6020820190506106da5f8301846106b8565b92915050565b5f73ffffffffffffffffffffffffffffffffffffffff82169050919050565b5f610709826106e0565b9050919050565b610719816106ff565b82525050565b5f6020820190506107325f830184610710565b92915050565b5f80fd5b610745816106af565b811461074f575f80fd5b50565b5f813590506107608161073c565b92915050565b5f6020828403121561077b5761077a610738565b5b5f61078884828501610752565b91505092915050565b5f8115159050919050565b6107a581610791565b82525050565b5f60a0820190506107be5f830188610710565b6107cb60208301876106b8565b6107d860408301866106b8565b6107e560608301856106b8565b6107f2608083018461079c565b9695505050505050565b5f806040838503121561081257610811610738565b5b5f61081f85828601610752565b925050602061083085828601610752565b9150509250929050565b5f82825260208201905092915050565b7f496e76616c6964206f7220696e73756666696369656e7420617661696c61626c5f8201527f6520737061636500000000000000000000000000000000000000000000000000602082015250565b5f6108a460278361083a565b91506108af8261084a565b604082019050919050565b5f6020820190508181035f8301526108d181610898565b9050919050565b7f4e487b71000000000000000000000000000000000000000000000000000000005f52601160045260245ffd5b5f61090f826106af565b915061091a836106af565b9250828202610928816106af565b9150828204841483151761093f5761093e6108d8565b5b5092915050565b7f496e73756666696369656e742066756e64732073656e740000000000000000005f82015250565b5f61097a60178361083a565b915061098582610946565b602082019050919050565b5f6020820190508181035f8301526109a78161096e565b9050919050565b5f6109b8826106af565b91506109c3836106af565b92508282019050808211156109db576109da6108d8565b5b92915050565b5f6109eb826106af565b91506109f6836106af565b9250828203905081811115610a0e57610a0d6108d8565b5b92915050565b5f606082019050610a275f830186610710565b610a3460208301856106b8565b610a4160408301846106b8565b949350505050565b7f4f6e6c7920746865206f776e65722063616e2063616c6c20746869732066756e5f8201527f6374696f6e000000000000000000000000000000000000000000000000000000602082015250565b5f610aa360258361083a565b9150610aae82610a49565b604082019050919050565b5f6020820190508181035f830152610ad081610a97565b9050919050565b7f496e76616c69642072656e74616c2049440000000000000000000000000000005f82015250565b5f610b0b60118361083a565b9150610b1682610ad7565b602082019050919050565b5f6020820190508181035f830152610b3881610aff565b9050919050565b7f4e487b71000000000000000000000000000000000000000000000000000000005f52603260045260245ffdfea264697066735822122014cf6dba997fb798a13bcd60a0ecd6dced0a37bf581039121c0aa0c1e03eee6364736f6c63430008150033","opcodes":"PUSH1 0x80 PUSH1 0x40 MSTORE CALLVALUE DUP1 ISZERO PUSH3 0x10 JUMPI PUSH0 DUP1 REVERT JUMPDEST POP PUSH1 0x40 MLOAD PUSH3 0xD39 CODESIZE SUB DUP1 PUSH3 0xD39 DUP4 CODECOPY DUP2 DUP2 ADD PUSH1 0x40 MSTORE DUP2 ADD SWAP1 PUSH3 0x36 SWAP2 SWAP1 PUSH3 0x130 JUMP JUMPDEST DUP1 PUSH0 DUP1 PUSH2 0x100 EXP DUP2 SLOAD DUP2 PUSH20 0xFFFFFFFFFFFFFFFFFFFFFFFFFFFFFFFFFFFFFFFF MUL NOT AND SWAP1 DUP4 PUSH20 0xFFFFFFFFFFFFFFFFFFFFFFFFFFFFFFFFFFFFFFFF AND MUL OR SWAP1 SSTORE POP DUP3 PUSH1 0x2 DUP2 SWAP1 SSTORE POP DUP3 PUSH1 0x3 DUP2 SWAP1 SSTORE POP DUP2 PUSH1 0x1 DUP2 SWAP1 SSTORE POP POP POP POP PUSH3 0x189 JUMP JUMPDEST PUSH0 DUP1 REVERT JUMPDEST PUSH0 DUP2 SWAP1 POP SWAP2 SWAP1 POP JUMP JUMPDEST PUSH3 0xAB DUP2 PUSH3 0x97 JUMP JUMPDEST DUP2 EQ PUSH3 0xB6 JUMPI PUSH0 DUP1 REVERT JUMPDEST POP JUMP JUMPDEST PUSH0 DUP2 MLOAD SWAP1 POP PUSH3 0xC9 DUP2 PUSH3 0xA0 JUMP JUMPDEST SWAP3 SWAP2 POP POP JUMP JUMPDEST PUSH0 PUSH20 0xFFFFFFFFFFFFFFFFFFFFFFFFFFFFFFFFFFFFFFFF DUP3 AND SWAP1 POP SWAP2 SWAP1 POP JUMP JUMPDEST PUSH0 PUSH3 0xFA DUP3 PUSH3 0xCF JUMP JUMPDEST SWAP1 POP SWAP2 SWAP1 POP JUMP JUMPDEST PUSH3 0x10C DUP2 PUSH3 0xEE JUMP JUMPDEST DUP2 EQ PUSH3 0x117 JUMPI PUSH0 DUP1 REVERT JUMPDEST POP JUMP JUMPDEST PUSH0 DUP2 MLOAD SWAP1 POP PUSH3 0x12A DUP2 PUSH3 0x101 JUMP JUMPDEST SWAP3 SWAP2 POP POP JUMP JUMPDEST PUSH0 DUP1 PUSH0 PUSH1 0x60 DUP5 DUP7 SUB SLT ISZERO PUSH3 0x14A JUMPI PUSH3 0x149 PUSH3 0x93 JUMP JUMPDEST JUMPDEST PUSH0 PUSH3 0x159 DUP7 DUP3 DUP8 ADD PUSH3 0xB9 JUMP JUMPDEST SWAP4 POP POP PUSH1 0x20 PUSH3 0x16C DUP7 DUP3 DUP8 ADD PUSH3 0xB9 JUMP JUMPDEST SWAP3 POP POP PUSH1 0x40 PUSH3 0x17F DUP7 DUP3 DUP8 ADD PUSH3 0x11A JUMP JUMPDEST SWAP2 POP POP SWAP3 POP SWAP3 POP SWAP3 JUMP JUMPDEST PUSH2 0xBA2 DUP1 PUSH3 0x197 PUSH0 CODECOPY PUSH0 RETURN INVALID PUSH1 0x80 PUSH1 0x40 MSTORE PUSH1 0x4 CALLDATASIZE LT PUSH2 0x7A JUMPI PUSH0 CALLDATALOAD PUSH1 0xE0 SHR DUP1 PUSH4 0x8DA5CB5B GT PUSH2 0x4D JUMPI DUP1 PUSH4 0x8DA5CB5B EQ PUSH2 0x126 JUMPI DUP1 PUSH4 0xAF94A1D1 EQ PUSH2 0x150 JUMPI DUP1 PUSH4 0xD12E8D51 EQ PUSH2 0x190 JUMPI DUP1 PUSH4 0xF9217419 EQ PUSH2 0x1AC JUMPI PUSH2 0x7A JUMP JUMPDEST DUP1 PUSH4 0x136F66D EQ PUSH2 0x7E JUMPI DUP1 PUSH4 0x1C43CD04 EQ PUSH2 0xA8 JUMPI DUP1 PUSH4 0x69B42DC2 EQ PUSH2 0xD2 JUMPI DUP1 PUSH4 0x83D255BC EQ PUSH2 0xFC JUMPI JUMPDEST PUSH0 DUP1 REVERT JUMPDEST CALLVALUE DUP1 ISZERO PUSH2 0x89 JUMPI PUSH0 DUP1 REVERT JUMPDEST POP PUSH2 0x92 PUSH2 0x1D4 JUMP JUMPDEST PUSH1 0x40 MLOAD PUSH2 0x9F SWAP2 SWAP1 PUSH2 0x6C7 JUMP JUMPDEST PUSH1 0x40 MLOAD DUP1 SWAP2 SUB SWAP1 RETURN JUMPDEST CALLVALUE DUP1 ISZERO PUSH2 0xB3 JUMPI PUSH0 DUP1 REVERT JUMPDEST POP PUSH2 0xBC PUSH2 0x1DA JUMP JUMPDEST PUSH1 0x40 MLOAD PUSH2 0xC9 SWAP2 SWAP1 PUSH2 0x6C7 JUMP JUMPDEST PUSH1 0x40 MLOAD DUP1 SWAP2 SUB SWAP1 RETURN JUMPDEST CALLVALUE DUP1 ISZERO PUSH2 0xDD JUMPI PUSH0 DUP1 REVERT JUMPDEST POP PUSH2 0xE6 PUSH2 0x1E0 JUMP JUMPDEST PUSH1 0x40 MLOAD PUSH2 0xF3 SWAP2 SWAP1 PUSH2 0x6C7 JUMP JUMPDEST PUSH1 0x40 MLOAD DUP1 SWAP2 SUB SWAP1 RETURN JUMPDEST CALLVALUE DUP1 ISZERO PUSH2 0x107 JUMPI PUSH0 DUP1 REVERT JUMPDEST POP PUSH2 0x110 PUSH2 0x1E6 JUMP JUMPDEST PUSH1 0x40 MLOAD PUSH2 0x11D SWAP2 SWAP1 PUSH2 0x6C7 JUMP JUMPDEST PUSH1 0x40 MLOAD DUP1 SWAP2 SUB SWAP1 RETURN JUMPDEST CALLVALUE DUP1 ISZERO PUSH2 0x131 JUMPI PUSH0 DUP1 REVERT JUMPDEST POP PUSH2 0x13A PUSH2 0x1F2 JUMP JUMPDEST PUSH1 0x40 MLOAD PUSH2 0x147 SWAP2 SWAP1 PUSH2 0x71F JUMP JUMPDEST PUSH1 0x40 MLOAD DUP1 SWAP2 SUB SWAP1 RETURN JUMPDEST CALLVALUE DUP1 ISZERO PUSH2 0x15B JUMPI PUSH0 DUP1 REVERT JUMPDEST POP PUSH2 0x176 PUSH1 0x4 DUP1 CALLDATASIZE SUB DUP2 ADD SWAP1 PUSH2 0x171 SWAP2 SWAP1 PUSH2 0x766 JUMP JUMPDEST PUSH2 0x215 JUMP JUMPDEST PUSH1 0x40 MLOAD PUSH2 0x187 SWAP6 SWAP5 SWAP4 SWAP3 SWAP2 SWAP1 PUSH2 0x7AB JUMP JUMPDEST PUSH1 0x40 MLOAD DUP1 SWAP2 SUB SWAP1 RETURN JUMPDEST PUSH2 0x1AA PUSH1 0x4 DUP1 CALLDATASIZE SUB DUP2 ADD SWAP1 PUSH2 0x1A5 SWAP2 SWAP1 PUSH2 0x7FC JUMP JUMPDEST PUSH2 0x281 JUMP JUMPDEST STOP JUMPDEST CALLVALUE DUP1 ISZERO PUSH2 0x1B7 JUMPI PUSH0 DUP1 REVERT JUMPDEST POP PUSH2 0x1D2 PUSH1 0x4 DUP1 CALLDATASIZE SUB DUP2 ADD SWAP1 PUSH2 0x1CD SWAP2 SWAP1 PUSH2 0x766 JUMP JUMPDEST PUSH2 0x490 JUMP JUMPDEST STOP JUMPDEST PUSH1 0x2 SLOAD DUP2 JUMP JUMPDEST PUSH1 0x1 SLOAD DUP2 JUMP JUMPDEST PUSH1 0x3 SLOAD DUP2 JUMP JUMPDEST PUSH0 PUSH1 0x4 DUP1 SLOAD SWAP1 POP SWAP1 POP SWAP1 JUMP JUMPDEST PUSH0 DUP1 SLOAD SWAP1 PUSH2 0x100 EXP SWAP1 DIV PUSH20 0xFFFFFFFFFFFFFFFFFFFFFFFFFFFFFFFFFFFFFFFF AND DUP2 JUMP JUMPDEST PUSH1 0x4 DUP2 DUP2 SLOAD DUP2 LT PUSH2 0x224 JUMPI PUSH0 DUP1 REVERT JUMPDEST SWAP1 PUSH0 MSTORE PUSH1 0x20 PUSH0 KECCAK256 SWAP1 PUSH1 0x5 MUL ADD PUSH0 SWAP2 POP SWAP1 POP DUP1 PUSH0 ADD PUSH0 SWAP1 SLOAD SWAP1 PUSH2 0x100 EXP SWAP1 DIV PUSH20 0xFFFFFFFFFFFFFFFFFFFFFFFFFFFFFFFFFFFFFFFF AND SWAP1 DUP1 PUSH1 0x1 ADD SLOAD SWAP1 DUP1 PUSH1 0x2 ADD SLOAD SWAP1 DUP1 PUSH1 0x3 ADD SLOAD SWAP1 DUP1 PUSH1 0x4 ADD PUSH0 SWAP1 SLOAD SWAP1 PUSH2 0x100 EXP SWAP1 DIV PUSH1 0xFF AND SWAP1 POP DUP6 JUMP JUMPDEST PUSH0 DUP3 GT DUP1 ISZERO PUSH2 0x292 JUMPI POP PUSH1 0x3 SLOAD DUP3 GT ISZERO JUMPDEST PUSH2 0x2D1 JUMPI PUSH1 0x40 MLOAD PUSH32 0x8C379A000000000000000000000000000000000000000000000000000000000 DUP2 MSTORE PUSH1 0x4 ADD PUSH2 0x2C8 SWAP1 PUSH2 0x8BA JUMP JUMPDEST PUSH1 0x40 MLOAD DUP1 SWAP2 SUB SWAP1 REVERT JUMPDEST PUSH0 PUSH2 0xE10 DUP3 PUSH2 0x2E0 SWAP2 SWAP1 PUSH2 0x905 JUMP JUMPDEST SWAP1 POP PUSH0 DUP2 DUP5 PUSH1 0x1 SLOAD PUSH2 0x2F2 SWAP2 SWAP1 PUSH2 0x905 JUMP JUMPDEST PUSH2 0x2FC SWAP2 SWAP1 PUSH2 0x905 JUMP JUMPDEST SWAP1 POP DUP1 CALLVALUE LT ISZERO PUSH2 0x341 JUMPI PUSH1 0x40 MLOAD PUSH32 0x8C379A000000000000000000000000000000000000000000000000000000000 DUP2 MSTORE PUSH1 0x4 ADD PUSH2 0x338 SWAP1 PUSH2 0x990 JUMP JUMPDEST PUSH1 0x40 MLOAD DUP1 SWAP2 SUB SWAP1 REVERT JUMPDEST PUSH1 0x4 PUSH1 0x40 MLOAD DUP1 PUSH1 0xA0 ADD PUSH1 0x40 MSTORE DUP1 CALLER PUSH20 0xFFFFFFFFFFFFFFFFFFFFFFFFFFFFFFFFFFFFFFFF AND DUP2 MSTORE PUSH1 0x20 ADD DUP7 DUP2 MSTORE PUSH1 0x20 ADD TIMESTAMP DUP2 MSTORE PUSH1 0x20 ADD DUP5 TIMESTAMP PUSH2 0x382 SWAP2 SWAP1 PUSH2 0x9AE JUMP JUMPDEST DUP2 MSTORE PUSH1 0x20 ADD PUSH1 0x1 ISZERO ISZERO DUP2 MSTORE POP SWAP1 DUP1 PUSH1 0x1 DUP2 SLOAD ADD DUP1 DUP3 SSTORE DUP1 SWAP2 POP POP PUSH1 0x1 SWAP1 SUB SWAP1 PUSH0 MSTORE PUSH1 0x20 PUSH0 KECCAK256 SWAP1 PUSH1 0x5 MUL ADD PUSH0 SWAP1 SWAP2 SWAP1 SWAP2 SWAP1 SWAP2 POP PUSH0 DUP3 ADD MLOAD DUP2 PUSH0 ADD PUSH0 PUSH2 0x100 EXP DUP2 SLOAD DUP2 PUSH20 0xFFFFFFFFFFFFFFFFFFFFFFFFFFFFFFFFFFFFFFFF MUL NOT AND SWAP1 DUP4 PUSH20 0xFFFFFFFFFFFFFFFFFFFFFFFFFFFFFFFFFFFFFFFF AND MUL OR SWAP1 SSTORE POP PUSH1 0x20 DUP3 ADD MLOAD DUP2 PUSH1 0x1 ADD SSTORE PUSH1 0x40 DUP3 ADD MLOAD DUP2 PUSH1 0x2 ADD SSTORE PUSH1 0x60 DUP3 ADD MLOAD DUP2 PUSH1 0x3 ADD SSTORE PUSH1 0x80 DUP3 ADD MLOAD DUP2 PUSH1 0x4 ADD PUSH0 PUSH2 0x100 EXP DUP2 SLOAD DUP2 PUSH1 0xFF MUL NOT AND SWAP1 DUP4 ISZERO ISZERO MUL OR SWAP1 SSTORE POP POP POP DUP4 PUSH1 0x3 PUSH0 DUP3 DUP3 SLOAD PUSH2 0x448 SWAP2 SWAP1 PUSH2 0x9E1 JUMP JUMPDEST SWAP3 POP POP DUP2 SWAP1 SSTORE POP PUSH32 0x741499C4EDF5C799E9CEDFDA49B3BCD3BBF97E3B1147B6E91507DB50FF25DC6D CALLER DUP6 DUP5 PUSH1 0x40 MLOAD PUSH2 0x482 SWAP4 SWAP3 SWAP2 SWAP1 PUSH2 0xA14 JUMP JUMPDEST PUSH1 0x40 MLOAD DUP1 SWAP2 SUB SWAP1 LOG1 POP POP POP POP JUMP JUMPDEST PUSH0 DUP1 SLOAD SWAP1 PUSH2 0x100 EXP SWAP1 DIV PUSH20 0xFFFFFFFFFFFFFFFFFFFFFFFFFFFFFFFFFFFFFFFF AND PUSH20 0xFFFFFFFFFFFFFFFFFFFFFFFFFFFFFFFFFFFFFFFF AND CALLER PUSH20 0xFFFFFFFFFFFFFFFFFFFFFFFFFFFFFFFFFFFFFFFF AND EQ PUSH2 0x51D JUMPI PUSH1 0x40 MLOAD PUSH32 0x8C379A000000000000000000000000000000000000000000000000000000000 DUP2 MSTORE PUSH1 0x4 ADD PUSH2 0x514 SWAP1 PUSH2 0xAB9 JUMP JUMPDEST PUSH1 0x40 MLOAD DUP1 SWAP2 SUB SWAP1 REVERT JUMPDEST PUSH1 0x4 DUP1 SLOAD SWAP1 POP DUP2 LT PUSH2 0x564 JUMPI PUSH1 0x40 MLOAD PUSH32 0x8C379A000000000000000000000000000000000000000000000000000000000 DUP2 MSTORE PUSH1 0x4 ADD PUSH2 0x55B SWAP1 PUSH2 0xB21 JUMP JUMPDEST PUSH1 0x40 MLOAD DUP1 SWAP2 SUB SWAP1 REVERT JUMPDEST PUSH0 PUSH1 0x4 DUP3 DUP2 SLOAD DUP2 LT PUSH2 0x579 JUMPI PUSH2 0x578 PUSH2 0xB3F JUMP JUMPDEST JUMPDEST SWAP1 PUSH0 MSTORE PUSH1 0x20 PUSH0 KECCAK256 SWAP1 PUSH1 0x5 MUL ADD SWAP1 POP DUP1 PUSH1 0x4 ADD PUSH0 SWAP1 SLOAD SWAP1 PUSH2 0x100 EXP SWAP1 DIV PUSH1 0xFF AND ISZERO PUSH2 0x6AB JUMPI DUP1 PUSH1 0x1 ADD SLOAD PUSH1 0x3 PUSH0 DUP3 DUP3 SLOAD PUSH2 0x5B2 SWAP2 SWAP1 PUSH2 0x9AE JUMP JUMPDEST SWAP3 POP POP DUP2 SWAP1 SSTORE POP PUSH0 DUP2 PUSH1 0x4 ADD PUSH0 PUSH2 0x100 EXP DUP2 SLOAD DUP2 PUSH1 0xFF MUL NOT AND SWAP1 DUP4 ISZERO ISZERO MUL OR SWAP1 SSTORE POP PUSH0 DUP2 PUSH1 0x2 ADD SLOAD DUP3 PUSH1 0x3 ADD SLOAD PUSH2 0x5E9 SWAP2 SWAP1 PUSH2 0x9E1 JUMP JUMPDEST SWAP1 POP PUSH0 DUP2 DUP4 PUSH1 0x1 ADD SLOAD PUSH1 0x1 SLOAD PUSH2 0x5FF SWAP2 SWAP1 PUSH2 0x905 JUMP JUMPDEST PUSH2 0x609 SWAP2 SWAP1 PUSH2 0x905 JUMP JUMPDEST SWAP1 POP DUP3 PUSH0 ADD PUSH0 SWAP1 SLOAD SWAP1 PUSH2 0x100 EXP SWAP1 DIV PUSH20 0xFFFFFFFFFFFFFFFFFFFFFFFFFFFFFFFFFFFFFFFF AND PUSH20 0xFFFFFFFFFFFFFFFFFFFFFFFFFFFFFFFFFFFFFFFF AND PUSH2 0x8FC DUP3 SWAP1 DUP2 ISZERO MUL SWAP1 PUSH1 0x40 MLOAD PUSH0 PUSH1 0x40 MLOAD DUP1 DUP4 SUB DUP2 DUP6 DUP9 DUP9 CALL SWAP4 POP POP POP POP ISZERO DUP1 ISZERO PUSH2 0x670 JUMPI RETURNDATASIZE PUSH0 DUP1 RETURNDATACOPY RETURNDATASIZE PUSH0 REVERT JUMPDEST POP PUSH32 0xECDDF1B4FDC1297684AA71A38E047726F2411AC8B4B4E705B9BF6E21D75AE133 DUP5 PUSH1 0x40 MLOAD PUSH2 0x6A0 SWAP2 SWAP1 PUSH2 0x6C7 JUMP JUMPDEST PUSH1 0x40 MLOAD DUP1 SWAP2 SUB SWAP1 LOG1 POP POP JUMPDEST POP POP JUMP JUMPDEST PUSH0 DUP2 SWAP1 POP SWAP2 SWAP1 POP JUMP JUMPDEST PUSH2 0x6C1 DUP2 PUSH2 0x6AF JUMP JUMPDEST DUP3 MSTORE POP POP JUMP JUMPDEST PUSH0 PUSH1 0x20 DUP3 ADD SWAP1 POP PUSH2 0x6DA PUSH0 DUP4 ADD DUP5 PUSH2 0x6B8 JUMP JUMPDEST SWAP3 SWAP2 POP POP JUMP JUMPDEST PUSH0 PUSH20 0xFFFFFFFFFFFFFFFFFFFFFFFFFFFFFFFFFFFFFFFF DUP3 AND SWAP1 POP SWAP2 SWAP1 POP JUMP JUMPDEST PUSH0 PUSH2 0x709 DUP3 PUSH2 0x6E0 JUMP JUMPDEST SWAP1 POP SWAP2 SWAP1 POP JUMP JUMPDEST PUSH2 0x719 DUP2 PUSH2 0x6FF JUMP JUMPDEST DUP3 MSTORE POP POP JUMP JUMPDEST PUSH0 PUSH1 0x20 DUP3 ADD SWAP1 POP PUSH2 0x732 PUSH0 DUP4 ADD DUP5 PUSH2 0x710 JUMP JUMPDEST SWAP3 SWAP2 POP POP JUMP JUMPDEST PUSH0 DUP1 REVERT JUMPDEST PUSH2 0x745 DUP2 PUSH2 0x6AF JUMP JUMPDEST DUP2 EQ PUSH2 0x74F JUMPI PUSH0 DUP1 REVERT JUMPDEST POP JUMP JUMPDEST PUSH0 DUP2 CALLDATALOAD SWAP1 POP PUSH2 0x760 DUP2 PUSH2 0x73C JUMP JUMPDEST SWAP3 SWAP2 POP POP JUMP JUMPDEST PUSH0 PUSH1 0x20 DUP3 DUP5 SUB SLT ISZERO PUSH2 0x77B JUMPI PUSH2 0x77A PUSH2 0x738 JUMP JUMPDEST JUMPDEST PUSH0 PUSH2 0x788 DUP5 DUP3 DUP6 ADD PUSH2 0x752 JUMP JUMPDEST SWAP2 POP POP SWAP3 SWAP2 POP POP JUMP JUMPDEST PUSH0 DUP2 ISZERO ISZERO SWAP1 POP SWAP2 SWAP1 POP JUMP JUMPDEST PUSH2 0x7A5 DUP2 PUSH2 0x791 JUMP JUMPDEST DUP3 MSTORE POP POP JUMP JUMPDEST PUSH0 PUSH1 0xA0 DUP3 ADD SWAP1 POP PUSH2 0x7BE PUSH0 DUP4 ADD DUP9 PUSH2 0x710 JUMP JUMPDEST PUSH2 0x7CB PUSH1 0x20 DUP4 ADD DUP8 PUSH2 0x6B8 JUMP JUMPDEST PUSH2 0x7D8 PUSH1 0x40 DUP4 ADD DUP7 PUSH2 0x6B8 JUMP JUMPDEST PUSH2 0x7E5 PUSH1 0x60 DUP4 ADD DUP6 PUSH2 0x6B8 JUMP JUMPDEST PUSH2 0x7F2 PUSH1 0x80 DUP4 ADD DUP5 PUSH2 0x79C JUMP JUMPDEST SWAP7 SWAP6 POP POP POP POP POP POP JUMP JUMPDEST PUSH0 DUP1 PUSH1 0x40 DUP4 DUP6 SUB SLT ISZERO PUSH2 0x812 JUMPI PUSH2 0x811 PUSH2 0x738 JUMP JUMPDEST JUMPDEST PUSH0 PUSH2 0x81F DUP6 DUP3 DUP7 ADD PUSH2 0x752 JUMP JUMPDEST SWAP3 POP POP PUSH1 0x20 PUSH2 0x830 DUP6 DUP3 DUP7 ADD PUSH2 0x752 JUMP JUMPDEST SWAP2 POP POP SWAP3 POP SWAP3 SWAP1 POP JUMP JUMPDEST PUSH0 DUP3 DUP3 MSTORE PUSH1 0x20 DUP3 ADD SWAP1 POP SWAP3 SWAP2 POP POP JUMP JUMPDEST PUSH32 0x496E76616C6964206F7220696E73756666696369656E7420617661696C61626C PUSH0 DUP3 ADD MSTORE PUSH32 0x6520737061636500000000000000000000000000000000000000000000000000 PUSH1 0x20 DUP3 ADD MSTORE POP JUMP JUMPDEST PUSH0 PUSH2 0x8A4 PUSH1 0x27 DUP4 PUSH2 0x83A JUMP JUMPDEST SWAP2 POP PUSH2 0x8AF DUP3 PUSH2 0x84A JUMP JUMPDEST PUSH1 0x40 DUP3 ADD SWAP1 POP SWAP2 SWAP1 POP JUMP JUMPDEST PUSH0 PUSH1 0x20 DUP3 ADD SWAP1 POP DUP2 DUP2 SUB PUSH0 DUP4 ADD MSTORE PUSH2 0x8D1 DUP2 PUSH2 0x898 JUMP JUMPDEST SWAP1 POP SWAP2 SWAP1 POP JUMP JUMPDEST PUSH32 0x4E487B7100000000000000000000000000000000000000000000000000000000 PUSH0 MSTORE PUSH1 0x11 PUSH1 0x4 MSTORE PUSH1 0x24 PUSH0 REVERT JUMPDEST PUSH0 PUSH2 0x90F DUP3 PUSH2 0x6AF JUMP JUMPDEST SWAP2 POP PUSH2 0x91A DUP4 PUSH2 0x6AF JUMP JUMPDEST SWAP3 POP DUP3 DUP3 MUL PUSH2 0x928 DUP2 PUSH2 0x6AF JUMP JUMPDEST SWAP2 POP DUP3 DUP3 DIV DUP5 EQ DUP4 ISZERO OR PUSH2 0x93F JUMPI PUSH2 0x93E PUSH2 0x8D8 JUMP JUMPDEST JUMPDEST POP SWAP3 SWAP2 POP POP JUMP JUMPDEST PUSH32 0x496E73756666696369656E742066756E64732073656E74000000000000000000 PUSH0 DUP3 ADD MSTORE POP JUMP JUMPDEST PUSH0 PUSH2 0x97A PUSH1 0x17 DUP4 PUSH2 0x83A JUMP JUMPDEST SWAP2 POP PUSH2 0x985 DUP3 PUSH2 0x946 JUMP JUMPDEST PUSH1 0x20 DUP3 ADD SWAP1 POP SWAP2 SWAP1 POP JUMP JUMPDEST PUSH0 PUSH1 0x20 DUP3 ADD SWAP1 POP DUP2 DUP2 SUB PUSH0 DUP4 ADD MSTORE PUSH2 0x9A7 DUP2 PUSH2 0x96E JUMP JUMPDEST SWAP1 POP SWAP2 SWAP1 POP JUMP JUMPDEST PUSH0 PUSH2 0x9B8 DUP3 PUSH2 0x6AF JUMP JUMPDEST SWAP2 POP PUSH2 0x9C3 DUP4 PUSH2 0x6AF JUMP JUMPDEST SWAP3 POP DUP3 DUP3 ADD SWAP1 POP DUP1 DUP3 GT ISZERO PUSH2 0x9DB JUMPI PUSH2 0x9DA PUSH2 0x8D8 JUMP JUMPDEST JUMPDEST SWAP3 SWAP2 POP POP JUMP JUMPDEST PUSH0 PUSH2 0x9EB DUP3 PUSH2 0x6AF JUMP JUMPDEST SWAP2 POP PUSH2 0x9F6 DUP4 PUSH2 0x6AF JUMP JUMPDEST SWAP3 POP DUP3 DUP3 SUB SWAP1 POP DUP2 DUP2 GT ISZERO PUSH2 0xA0E JUMPI PUSH2 0xA0D PUSH2 0x8D8 JUMP JUMPDEST JUMPDEST SWAP3 SWAP2 POP POP JUMP JUMPDEST PUSH0 PUSH1 0x60 DUP3 ADD SWAP1 POP PUSH2 0xA27 PUSH0 DUP4 ADD DUP7 PUSH2 0x710 JUMP JUMPDEST PUSH2 0xA34 PUSH1 0x20 DUP4 ADD DUP6 PUSH2 0x6B8 JUMP JUMPDEST PUSH2 0xA41 PUSH1 0x40 DUP4 ADD DUP5 PUSH2 0x6B8 JUMP JUMPDEST SWAP5 SWAP4 POP POP POP POP JUMP JUMPDEST PUSH32 0x4F6E6C7920746865206F776E65722063616E2063616C6C20746869732066756E PUSH0 DUP3 ADD MSTORE PUSH32 0x6374696F6E000000000000000000000000000000000000000000000000000000 PUSH1 0x20 DUP3 ADD MSTORE POP JUMP JUMPDEST PUSH0 PUSH2 0xAA3 PUSH1 0x25 DUP4 PUSH2 0x83A JUMP JUMPDEST SWAP2 POP PUSH2 0xAAE DUP3 PUSH2 0xA49 JUMP JUMPDEST PUSH1 0x40 DUP3 ADD SWAP1 POP SWAP2 SWAP1 POP JUMP JUMPDEST PUSH0 PUSH1 0x20 DUP3 ADD SWAP1 POP DUP2 DUP2 SUB PUSH0 DUP4 ADD MSTORE PUSH2 0xAD0 DUP2 PUSH2 0xA97 JUMP JUMPDEST SWAP1 POP SWAP2 SWAP1 POP JUMP JUMPDEST PUSH32 0x496E76616C69642072656E74616C204944000000000000000000000000000000 PUSH0 DUP3 ADD MSTORE POP JUMP JUMPDEST PUSH0 PUSH2 0xB0B PUSH1 0x11 DUP4 PUSH2 0x83A JUMP JUMPDEST SWAP2 POP PUSH2 0xB16 DUP3 PUSH2 0xAD7 JUMP JUMPDEST PUSH1 0x20 DUP3 ADD SWAP1 POP SWAP2 SWAP1 POP JUMP JUMPDEST PUSH0 PUSH1 0x20 DUP3 ADD SWAP1 POP DUP2 DUP2 SUB PUSH0 DUP4 ADD MSTORE PUSH2 0xB38 DUP2 PUSH2 0xAFF JUMP JUMPDEST SWAP1 POP SWAP2 SWAP1 POP JUMP JUMPDEST PUSH32 0x4E487B7100000000000000000000000000000000000000000000000000000000 PUSH0 MSTORE PUSH1 0x32 PUSH1 0x4 MSTORE PUSH1 0x24 PUSH0 REVERT INVALID LOG2 PUSH5 0x6970667358 0x22 SLT KECCAK256 EQ 0xCF PUSH14 0xBA997FB798A13BCD60A0ECD6DCED EXP CALLDATACOPY 0xBF PC LT CODECOPY SLT SHR EXP LOG0 0xC1 0xE0 RETURNDATACOPY 0xEE PUSH4 0x64736F6C PUSH4 0x43000815 STOP CALLER "},"gasEstimates":{"creation":{"codeDepositCost":"595600","executionCost":"infinite","totalCost":"infinite"},"external":{"availableDiskSpace()":"2470","createRental(uint256,uint256)":"infinite","getRentalCount()":"2507","owner()":"2505","rentalPrice()":"2448","rentals(uint256)":"infinite","terminateRental(uint256)":"infinite","totalDiskSpace()":"2426"}},"methodIdentifiers":{"availableDiskSpace()":"69b42dc2","createRental(uint256,uint256)":"d12e8d51","getRentalCount()":"83d255bc","owner()":"8da5cb5b","rentalPrice()":"1c43cd04","rentals(uint256)":"af94a1d1","terminateRental(uint256)":"f9217419","totalDiskSpace()":"0136f66d"}},"storageLayout":{"storage":[{"astId":44,"contract":"DiskSpaceRentalSystem.sol:DiskSpaceRentalSystem","label":"owner","offset":0,"slot":"0","type":"t_address"},{"astId":46,"contract":"DiskSpaceRentalSystem.sol:DiskSpaceRentalSystem","label":"rentalPrice","offset":0,"slot":"1","type":"t_uint256"},{"astId":48,"contract":"DiskSpaceRentalSystem.sol:DiskSpaceRentalSystem","label":"totalDiskSpace","offset":0,"slot":"2","type":"t_uint256"},{"astId":50,"contract":"DiskSpaceRentalSystem.sol:DiskSpaceRentalSystem","label":"availableDiskSpace","offset":0,"slot":"3","type":"t_uint256"},{"astId":65,"contract":"DiskSpaceRentalSystem.sol:DiskSpaceRentalSystem","label":"rentals","offset":0,"slot":"4","type":"t_array(t_struct(Rental)61_storage)dyn_storage"}],"types":{"t_address":{"encoding":"inplace","label":"address","numberOfBytes":"20"},"t_array(t_struct(Rental)61_storage)dyn_storage":{"base":"t_struct(Rental)61_storage","encoding":"dynamic_array","label":"struct DiskSpaceRentalSystem.Rental[]","numberOfBytes":"32"},"t_bool":{"encoding":"inplace","label":"bool","numberOfBytes":"1"},"t_struct(Rental)61_storage":{"encoding":"inplace","label":"struct DiskSpaceRentalSystem.Rental","members":[{"astId":52,"contract":"DiskSpaceRentalSystem.sol:DiskSpaceRentalSystem","label":"renter","offset":0,"slot":"0","type":"t_address"},{"astId":54,"contract":"DiskSpaceRentalSystem.sol:DiskSpaceRentalSystem","label":"space","offset":0,"slot":"1","type":"t_uint256"},{"astId":56,"contract":"DiskSpaceRentalSystem.sol:DiskSpaceRentalSystem","label":"startTime","offset":0,"slot":"2","type":"t_uint256"},{"astId":58,"contract":"DiskSpaceRentalSystem.sol:DiskSpaceRentalSystem","label":"endTime","offset":0,"slot":"3","type":"t_uint256"},{"astId":60,"contract":"DiskSpaceRentalSystem.sol:DiskSpaceRentalSystem","label":"active","offset":0,"slot":"4","type":"t_bool"}],"numberOfBytes":"160"},"t_uint256":{"encoding":"inplace","label":"uint256","numberOfBytes":"32"}}},"userdoc":{"kind":"user","methods":{},"version":1}}